{
    "_format": "hh-sol-artifact-1",
    "contractName": "GameFactory",
    "sourceName": "contracts/GameFactory.sol",
    "abi": [
        {
            "inputs": [],
            "stateMutability": "nonpayable",
            "type": "constructor"
        },
        {
            "inputs": [
                {
                    "internalType": "address",
                    "name": "owner",
                    "type": "address"
                }
            ],
            "name": "OwnableInvalidOwner",
            "type": "error"
        },
        {
            "inputs": [
                {
                    "internalType": "address",
                    "name": "account",
                    "type": "address"
                }
            ],
            "name": "OwnableUnauthorizedAccount",
            "type": "error"
        },
        {
            "anonymous": false,
            "inputs": [
                {
                    "indexed": true,
                    "internalType": "address",
                    "name": "newGameAddress",
                    "type": "address"
                },
                {
                    "indexed": true,
                    "internalType": "address",
                    "name": "creator",
                    "type": "address"
                },
                {
                    "indexed": false,
                    "internalType": "uint256",
                    "name": "wager",
                    "type": "uint256"
                }
            ],
            "name": "GameCreated",
            "type": "event"
        },
        {
            "anonymous": false,
            "inputs": [
                {
                    "indexed": true,
                    "internalType": "address",
                    "name": "previousOwner",
                    "type": "address"
                },
                {
                    "indexed": true,
                    "internalType": "address",
                    "name": "newOwner",
                    "type": "address"
                }
            ],
            "name": "OwnershipTransferred",
            "type": "event"
        },
        {
            "inputs": [
                {
                    "internalType": "uint256",
                    "name": "_wagerAmount",
                    "type": "uint256"
                },
                {
                    "internalType": "uint8",
                    "name": "_serviceFeePercentage",
                    "type": "uint8"
                }
            ],
            "name": "createGame",
            "outputs": [],
            "stateMutability": "nonpayable",
            "type": "function"
        },
        {
            "inputs": [
                {
                    "internalType": "uint256",
                    "name": "",
                    "type": "uint256"
                }
            ],
            "name": "games",
            "outputs": [
                {
                    "internalType": "address",
                    "name": "",
                    "type": "address"
                }
            ],
            "stateMutability": "view",
            "type": "function"
        },
        {
            "inputs": [],
            "name": "owner",
            "outputs": [
                {
                    "internalType": "address",
                    "name": "",
                    "type": "address"
                }
            ],
            "stateMutability": "view",
            "type": "function"
        },
        {
            "inputs": [],
            "name": "renounceOwnership",
            "outputs": [],
            "stateMutability": "nonpayable",
            "type": "function"
        },
        {
            "inputs": [
                {
                    "internalType": "address",
                    "name": "newOwner",
                    "type": "address"
                }
            ],
            "name": "transferOwnership",
            "outputs": [],
            "stateMutability": "nonpayable",
            "type": "function"
        }
    ],
    "bytecode": "0x608060405234801561001057600080fd5b5033600073ffffffffffffffffffffffffffffffffffffffff168173ffffffffffffffffffffffffffffffffffffffff16036100845760006040517f1e4fbdf700000000000000000000000000000000000000000000000000000000815260040161007b919061019e565b60405180910390fd5b6100938161009960201b60201c565b506101b9565b60008060009054906101000a900473ffffffffffffffffffffffffffffffffffffffff169050816000806101000a81548173ffffffffffffffffffffffffffffffffffffffff021916908373ffffffffffffffffffffffffffffffffffffffff1602179055508173ffffffffffffffffffffffffffffffffffffffff168173ffffffffffffffffffffffffffffffffffffffff167f8be0079c531659141344cd1fd0a4f28419497f9722a3daafe3b4186f6b6457e060405160405180910390a35050565b600073ffffffffffffffffffffffffffffffffffffffff82169050919050565b60006101888261015d565b9050919050565b6101988161017d565b82525050565b60006020820190506101b3600083018461018f565b92915050565b614909806101c86000396000f3fe608060405234801561001057600080fd5b50600436106100575760003560e01c8063117a5b901461005c5780635db896b31461008c578063715018a6146100a85780638da5cb5b146100b2578063f2fde38b146100d0575b600080fd5b61007660048036038101906100719190610492565b6100ec565b6040516100839190610500565b60405180910390f35b6100a660048036038101906100a19190610554565b61012b565b005b6100b0610234565b005b6100ba610248565b6040516100c79190610500565b60405180910390f35b6100ea60048036038101906100e591906105c0565b610271565b005b600181815481106100fc57600080fd5b906000526020600020016000915054906101000a900473ffffffffffffffffffffffffffffffffffffffff1681565b600082823360405161013c9061044a565b6101489392919061060b565b604051809103906000f080158015610164573d6000803e3d6000fd5b5090506001819080600181540180825580915050600190039060005260206000200160009091909190916101000a81548173ffffffffffffffffffffffffffffffffffffffff021916908373ffffffffffffffffffffffffffffffffffffffff1602179055503373ffffffffffffffffffffffffffffffffffffffff168173ffffffffffffffffffffffffffffffffffffffff167fd152bf1ab39ec18e27d3dcb4f271007b0107191d3e8bed48c19ca8c9c1309e26856040516102279190610642565b60405180910390a3505050565b61023c6102f7565b610246600061037e565b565b60008060009054906101000a900473ffffffffffffffffffffffffffffffffffffffff16905090565b6102796102f7565b600073ffffffffffffffffffffffffffffffffffffffff168173ffffffffffffffffffffffffffffffffffffffff16036102eb5760006040517f1e4fbdf70000000000000000000000000000000000000000000000000000000081526004016102e29190610500565b60405180910390fd5b6102f48161037e565b50565b6102ff610442565b73ffffffffffffffffffffffffffffffffffffffff1661031d610248565b73ffffffffffffffffffffffffffffffffffffffff161461037c57610340610442565b6040517f118cdaa70000000000000000000000000000000000000000000000000000000081526004016103739190610500565b60405180910390fd5b565b60008060009054906101000a900473ffffffffffffffffffffffffffffffffffffffff169050816000806101000a81548173ffffffffffffffffffffffffffffffffffffffff021916908373ffffffffffffffffffffffffffffffffffffffff1602179055508173ffffffffffffffffffffffffffffffffffffffff168173ffffffffffffffffffffffffffffffffffffffff167f8be0079c531659141344cd1fd0a4f28419497f9722a3daafe3b4186f6b6457e060405160405180910390a35050565b600033905090565b6142768061065e83390190565b600080fd5b6000819050919050565b61046f8161045c565b811461047a57600080fd5b50565b60008135905061048c81610466565b92915050565b6000602082840312156104a8576104a7610457565b5b60006104b68482850161047d565b91505092915050565b600073ffffffffffffffffffffffffffffffffffffffff82169050919050565b60006104ea826104bf565b9050919050565b6104fa816104df565b82525050565b600060208201905061051560008301846104f1565b92915050565b600060ff82169050919050565b6105318161051b565b811461053c57600080fd5b50565b60008135905061054e81610528565b92915050565b6000806040838503121561056b5761056a610457565b5b60006105798582860161047d565b925050602061058a8582860161053f565b9150509250929050565b61059d816104df565b81146105a857600080fd5b50565b6000813590506105ba81610594565b92915050565b6000602082840312156105d6576105d5610457565b5b60006105e4848285016105ab565b91505092915050565b6105f68161045c565b82525050565b6106058161051b565b82525050565b600060608201905061062060008301866105ed565b61062d60208301856105fc565b61063a60408301846104f1565b949350505050565b600060208201905061065760008301846105ed565b9291505056fe60c060405234801561001057600080fd5b506040516142763803806142768339818101604052810190610032919061036d565b80600073ffffffffffffffffffffffffffffffffffffffff168173ffffffffffffffffffffffffffffffffffffffff16036100a55760006040517f1e4fbdf700000000000000000000000000000000000000000000000000000000815260040161009c91906103cf565b60405180910390fd5b6100b4816101d760201b60201c565b50600083116100f8576040517f08c379a00000000000000000000000000000000000000000000000000000000081526004016100ef9061046d565b60405180910390fd5b60648260ff16111561013f576040517f08c379a0000000000000000000000000000000000000000000000000000000008152600401610136906104ff565b60405180910390fd5b82608081815250508160ff1660a08160ff168152505060008060146101000a81548160ff0219169083600581111561017a5761017961051f565b5b021790555061012c4261018d919061057d565b6003819055507f8361a211b9a77318f0c4f0437736316dafd0c35b0437a5174da6913271e7e20360006003546040516101c7929190610608565b60405180910390a1505050610631565b60008060009054906101000a900473ffffffffffffffffffffffffffffffffffffffff169050816000806101000a81548173ffffffffffffffffffffffffffffffffffffffff021916908373ffffffffffffffffffffffffffffffffffffffff1602179055508173ffffffffffffffffffffffffffffffffffffffff168173ffffffffffffffffffffffffffffffffffffffff167f8be0079c531659141344cd1fd0a4f28419497f9722a3daafe3b4186f6b6457e060405160405180910390a35050565b600080fd5b6000819050919050565b6102b3816102a0565b81146102be57600080fd5b50565b6000815190506102d0816102aa565b92915050565b600060ff82169050919050565b6102ec816102d6565b81146102f757600080fd5b50565b600081519050610309816102e3565b92915050565b600073ffffffffffffffffffffffffffffffffffffffff82169050919050565b600061033a8261030f565b9050919050565b61034a8161032f565b811461035557600080fd5b50565b60008151905061036781610341565b92915050565b6000806000606084860312156103865761038561029b565b5b6000610394868287016102c1565b93505060206103a5868287016102fa565b92505060406103b686828701610358565b9150509250925092565b6103c98161032f565b82525050565b60006020820190506103e460008301846103c0565b92915050565b600082825260208201905092915050565b7f5765747465696e7361747a206d7573732067726f657373657220616c7320302060008201527f7365696e2e000000000000000000000000000000000000000000000000000000602082015250565b60006104576025836103ea565b9150610462826103fb565b604082019050919050565b600060208201905081810360008301526104868161044a565b9050919050565b7f53657276696365676562756568722064617266206d6178696d616c203130302560008201527f207365696e2e0000000000000000000000000000000000000000000000000000602082015250565b60006104e96026836103ea565b91506104f48261048d565b604082019050919050565b60006020820190508181036000830152610518816104dc565b9050919050565b7f4e487b7100000000000000000000000000000000000000000000000000000000600052602160045260246000fd5b7f4e487b7100000000000000000000000000000000000000000000000000000000600052601160045260246000fd5b6000610588826102a0565b9150610593836102a0565b92508282019050808211156105ab576105aa61054e565b5b92915050565b600681106105c2576105c161051f565b5b50565b60008190506105d3826105b1565b919050565b60006105e3826105c5565b9050919050565b6105f3816105d8565b82525050565b610602816102a0565b82525050565b600060408201905061061d60008301856105ea565b61062a60208301846105f9565b9392505050565b60805160a051613c0b61066b60003960008181610c5501528181610e4f0152610fdc01526000818161177701526122840152613c0b6000f3fe60806040526004361061019c5760003560e01c806389518834116100ec578063bb1b41721161008a578063e723c51d11610064578063e723c51d14610546578063e867c29614610571578063f14fcbc81461059c578063f2fde38b146105c55761019c565b8063bb1b4172146104d9578063cb910bda146104f0578063dfbf53ae1461051b5761019c565b8063ad20586a116100c6578063ad20586a14610416578063b39773a614610458578063b7e7593d14610483578063b971e2fd146104ae5761019c565b806389518834146103b65780638da5cb5b146103e1578063a10efef11461040c5761019c565b80634ba2363a11610159578063572dbdcb11610133578063572dbdcb1461033257806364ebd1d81461035d578063715018a61461037457806385f07bbe1461038b5761019c565b80634ba2363a1461029f5780634c1342df146102ca5780635535f534146102f55761019c565b80631af08b05146101a15780631f22f2dc146101de57806329dcb0cf146102075780633ccfd60b1461023257806341b0c9ba1461024957806344cd130914610274575b600080fd5b3480156101ad57600080fd5b506101c860048036038101906101c3919061283f565b6105ee565b6040516101d591906128ad565b60405180910390f35b3480156101ea57600080fd5b5061020560048036038101906102009190612938565b61062d565b005b34801561021357600080fd5b5061021c610a93565b6040516102299190612987565b60405180910390f35b34801561023e57600080fd5b50610247610a99565b005b34801561025557600080fd5b5061025e610fd4565b60405161026b9190612987565b60405180910390f35b34801561028057600080fd5b50610289610fda565b60405161029691906129be565b60405180910390f35b3480156102ab57600080fd5b506102b4610ffe565b6040516102c19190612987565b60405180910390f35b3480156102d657600080fd5b506102df611004565b6040516102ec9190612987565b60405180910390f35b34801561030157600080fd5b5061031c6004803603810190610317919061283f565b61100a565b60405161032991906128ad565b60405180910390f35b34801561033e57600080fd5b50610347611049565b6040516103549190612987565b60405180910390f35b34801561036957600080fd5b5061037261104f565b005b34801561038057600080fd5b50610389611665565b005b34801561039757600080fd5b506103a0611679565b6040516103ad91906129be565b60405180910390f35b3480156103c257600080fd5b506103cb61167e565b6040516103d891906129f4565b60405180910390f35b3480156103ed57600080fd5b506103f6611691565b60405161040391906128ad565b60405180910390f35b6104146116ba565b005b34801561042257600080fd5b5061043d60048036038101906104389190612a3b565b611a40565b60405161044f96959493929190612a86565b60405180910390f35b34801561046457600080fd5b5061046d611ab1565b60405161047a9190612987565b60405180910390f35b34801561048f57600080fd5b50610498611ab7565b6040516104a59190612987565b60405180910390f35b3480156104ba57600080fd5b506104c3611ac4565b6040516104d09190612987565b60405180910390f35b3480156104e557600080fd5b506104ee611aca565b005b3480156104fc57600080fd5b50610505612282565b6040516105129190612987565b60405180910390f35b34801561052757600080fd5b506105306122a6565b60405161053d91906128ad565b60405180910390f35b34801561055257600080fd5b5061055b6122cc565b6040516105689190612b5e565b60405180910390f35b34801561057d57600080fd5b506105866122df565b6040516105939190612987565b60405180910390f35b3480156105a857600080fd5b506105c360048036038101906105be9190612b79565b6122e5565b005b3480156105d157600080fd5b506105ec60048036038101906105e79190612a3b565b6125ed565b005b600681815481106105fe57600080fd5b906000526020600020016000915054906101000a900473ffffffffffffffffffffffffffffffffffffffff1681565b600280600581111561064257610641612ae7565b5b600060149054906101000a900460ff16600581111561066457610663612ae7565b5b146106a4576040517f08c379a000000000000000000000000000000000000000000000000000000000815260040161069b90612c29565b60405180910390fd5b60035442106106e8576040517f08c379a00000000000000000000000000000000000000000000000000000000081526004016106df90612cbb565b60405180910390fd5b6000600160003373ffffffffffffffffffffffffffffffffffffffff1673ffffffffffffffffffffffffffffffffffffffff168152602001908152602001600020600001541161076d576040517f08c379a000000000000000000000000000000000000000000000000000000000815260040161076490612d4d565b60405180910390fd5b600160003373ffffffffffffffffffffffffffffffffffffffff1673ffffffffffffffffffffffffffffffffffffffff16815260200190815260200160002060020160029054906101000a900460ff166107fc576040517f08c379a00000000000000000000000000000000000000000000000000000000081526004016107f390612ddf565b60405180910390fd5b600160003373ffffffffffffffffffffffffffffffffffffffff1673ffffffffffffffffffffffffffffffffffffffff16815260200190815260200160002060020160039054906101000a900460ff161561088c576040517f08c379a000000000000000000000000000000000000000000000000000000000815260040161088390612e4b565b60405180910390fd5b6103e88361ffff1611156108d5576040517f08c379a00000000000000000000000000000000000000000000000000000000081526004016108cc90612edd565b60405180910390fd5b60008383336040516020016108ec93929190612f9c565b604051602081830303815290604052805190602001209050600160003373ffffffffffffffffffffffffffffffffffffffff1673ffffffffffffffffffffffffffffffffffffffff168152602001908152602001600020600101548114610988576040517f08c379a000000000000000000000000000000000000000000000000000000000815260040161097f9061304b565b60405180910390fd5b83600160003373ffffffffffffffffffffffffffffffffffffffff1673ffffffffffffffffffffffffffffffffffffffff16815260200190815260200160002060020160006101000a81548161ffff021916908361ffff16021790555060018060003373ffffffffffffffffffffffffffffffffffffffff1673ffffffffffffffffffffffffffffffffffffffff16815260200190815260200160002060020160036101000a81548160ff0219169083151502179055503373ffffffffffffffffffffffffffffffffffffffff167f02611ce3540950ad36b01d44bdfefc5091a4f5c486cbe0ab219080fde911492785604051610a85919061306b565b60405180910390a250505050565b60035481565b6004806005811115610aae57610aad612ae7565b5b600060149054906101000a900460ff166005811115610ad057610acf612ae7565b5b14610b10576040517f08c379a0000000000000000000000000000000000000000000000000000000008152600401610b0790612c29565b60405180910390fd5b600560019054906101000a900473ffffffffffffffffffffffffffffffffffffffff1673ffffffffffffffffffffffffffffffffffffffff163373ffffffffffffffffffffffffffffffffffffffff1603610da457600160003373ffffffffffffffffffffffffffffffffffffffff1673ffffffffffffffffffffffffffffffffffffffff16815260200190815260200160002060020160049054906101000a900460ff1615610bf5576040517f08c379a0000000000000000000000000000000000000000000000000000000008152600401610bec906130d2565b60405180910390fd5b60018060003373ffffffffffffffffffffffffffffffffffffffff1673ffffffffffffffffffffffffffffffffffffffff16815260200190815260200160002060020160046101000a81548160ff021916908315150217905550600060647f000000000000000000000000000000000000000000000000000000000000000060ff16600454610c849190613121565b610c8e9190613192565b9050600081600454610ca091906131c3565b905060003373ffffffffffffffffffffffffffffffffffffffff1682604051610cc890613228565b60006040518083038185875af1925050503d8060008114610d05576040519150601f19603f3d011682016040523d82523d6000602084013e610d0a565b606091505b5050905080610d4e576040517f08c379a0000000000000000000000000000000000000000000000000000000008152600401610d45906132af565b60405180910390fd5b3373ffffffffffffffffffffffffffffffffffffffff167f8df6ea29e9999fca9954eb2029dd32bc88491d414e6e291639995dc8157e803283604051610d949190612987565b60405180910390a2505050610fd1565b610dac611691565b73ffffffffffffffffffffffffffffffffffffffff163373ffffffffffffffffffffffffffffffffffffffff1603610f9557600560009054906101000a900460ff1615610e2e576040517f08c379a0000000000000000000000000000000000000000000000000000000008152600401610e2590613341565b60405180910390fd5b6001600560006101000a81548160ff021916908315150217905550600060647f000000000000000000000000000000000000000000000000000000000000000060ff16600454610e7e9190613121565b610e889190613192565b90506000811115610f8f5760003373ffffffffffffffffffffffffffffffffffffffff1682604051610eb990613228565b60006040518083038185875af1925050503d8060008114610ef6576040519150601f19603f3d011682016040523d82523d6000602084013e610efb565b606091505b5050905080610f3f576040517f08c379a0000000000000000000000000000000000000000000000000000000008152600401610f36906133d3565b60405180910390fd5b3373ffffffffffffffffffffffffffffffffffffffff167f8df6ea29e9999fca9954eb2029dd32bc88491d414e6e291639995dc8157e803283604051610f859190612987565b60405180910390a2505b50610fd0565b6040517f08c379a0000000000000000000000000000000000000000000000000000000008152600401610fc79061343f565b60405180910390fd5b5b50565b60085481565b7f000000000000000000000000000000000000000000000000000000000000000081565b60045481565b61012c81565b6002818154811061101a57600080fd5b906000526020600020016000915054906101000a900473ffffffffffffffffffffffffffffffffffffffff1681565b60095481565b6000600581111561106357611062612ae7565b5b600060149054906101000a900460ff16600581111561108557611084612ae7565b5b036111e657600354421015806110cd575061109e611691565b73ffffffffffffffffffffffffffffffffffffffff163373ffffffffffffffffffffffffffffffffffffffff16145b61110c576040517f08c379a0000000000000000000000000000000000000000000000000000000008152600401611103906134ab565b60405180910390fd5b600360ff166002805490501015611158576040517f08c379a000000000000000000000000000000000000000000000000000000000815260040161114f9061353d565b60405180910390fd5b6001600060146101000a81548160ff0219169083600581111561117e5761117d612ae7565b5b021790555061012c42611191919061355d565b6003819055507f8361a211b9a77318f0c4f0437736316dafd0c35b0437a5174da6913271e7e203600060149054906101000a900460ff166003546040516111d9929190613591565b60405180910390a1611663565b600160058111156111fa576111f9612ae7565b5b600060149054906101000a900460ff16600581111561121c5761121b612ae7565b5b0361133157600354421015806112645750611235611691565b73ffffffffffffffffffffffffffffffffffffffff163373ffffffffffffffffffffffffffffffffffffffff16145b6112a3576040517f08c379a000000000000000000000000000000000000000000000000000000000815260040161129a906134ab565b60405180910390fd5b6002600060146101000a81548160ff021916908360058111156112c9576112c8612ae7565b5b021790555061012c426112dc919061355d565b6003819055507f8361a211b9a77318f0c4f0437736316dafd0c35b0437a5174da6913271e7e203600060149054906101000a900460ff16600354604051611324929190613591565b60405180910390a1611663565b6002600581111561134557611344612ae7565b5b600060149054906101000a900460ff16600581111561136757611366612ae7565b5b0361147057600354421015806113af5750611380611691565b73ffffffffffffffffffffffffffffffffffffffff163373ffffffffffffffffffffffffffffffffffffffff16145b6113ee576040517f08c379a00000000000000000000000000000000000000000000000000000000081526004016113e5906134ab565b60405180910390fd5b6003600060146101000a81548160ff0219169083600581111561141457611413612ae7565b5b021790555060006003819055507f8361a211b9a77318f0c4f0437736316dafd0c35b0437a5174da6913271e7e203600060149054906101000a900460ff16600354604051611463929190613591565b60405180910390a1611663565b6004600581111561148457611483612ae7565b5b600060149054906101000a900460ff1660058111156114a6576114a5612ae7565b5b03611662576114b3611691565b73ffffffffffffffffffffffffffffffffffffffff163373ffffffffffffffffffffffffffffffffffffffff1614611520576040517f08c379a00000000000000000000000000000000000000000000000000000000081526004016115179061362c565b60405180910390fd5b600560009054906101000a900460ff1680156115aa575060016000600560019054906101000a900473ffffffffffffffffffffffffffffffffffffffff1673ffffffffffffffffffffffffffffffffffffffff1673ffffffffffffffffffffffffffffffffffffffff16815260200190815260200160002060020160049054906101000a900460ff165b6115e9576040517f08c379a00000000000000000000000000000000000000000000000000000000081526004016115e0906136be565b60405180910390fd5b6005600060146101000a81548160ff0219169083600581111561160f5761160e612ae7565b5b02179055507f8361a211b9a77318f0c4f0437736316dafd0c35b0437a5174da6913271e7e203600060149054906101000a900460ff166000604051611655929190613723565b60405180910390a1611663565b5b565b61166d612673565b61167760006126fa565b565b600381565b600560009054906101000a900460ff1681565b60008060009054906101000a900473ffffffffffffffffffffffffffffffffffffffff16905090565b60008060058111156116cf576116ce612ae7565b5b600060149054906101000a900460ff1660058111156116f1576116f0612ae7565b5b14611731576040517f08c379a000000000000000000000000000000000000000000000000000000000815260040161172890612c29565b60405180910390fd5b6003544210611775576040517f08c379a000000000000000000000000000000000000000000000000000000000815260040161176c90612cbb565b60405180910390fd5b7f000000000000000000000000000000000000000000000000000000000000000034146117d7576040517f08c379a00000000000000000000000000000000000000000000000000000000081526004016117ce90613798565b60405180910390fd5b6000600160003373ffffffffffffffffffffffffffffffffffffffff1673ffffffffffffffffffffffffffffffffffffffff168152602001908152602001600020600001541461185c576040517f08c379a00000000000000000000000000000000000000000000000000000000081526004016118539061382a565b60405180910390fd5b6002339080600181540180825580915050600190039060005260206000200160009091909190916101000a81548173ffffffffffffffffffffffffffffffffffffffff021916908373ffffffffffffffffffffffffffffffffffffffff1602179055506040518060c001604052803481526020016000801b8152602001600061ffff16815260200160001515815260200160001515815260200160001515815250600160003373ffffffffffffffffffffffffffffffffffffffff1673ffffffffffffffffffffffffffffffffffffffff168152602001908152602001600020600082015181600001556020820151816001015560408201518160020160006101000a81548161ffff021916908361ffff16021790555060608201518160020160026101000a81548160ff02191690831515021790555060808201518160020160036101000a81548160ff02191690831515021790555060a08201518160020160046101000a81548160ff02191690831515021790555090505034600460008282546119e8919061355d565b925050819055503373ffffffffffffffffffffffffffffffffffffffff167f43233cd6fdb7813564a8927b95d173ab1d6305565e0a0b2bb6c236b53907538634604051611a359190612987565b60405180910390a250565b60016020528060005260406000206000915090508060000154908060010154908060020160009054906101000a900461ffff16908060020160029054906101000a900460ff16908060020160039054906101000a900460ff16908060020160049054906101000a900460ff16905086565b61012c81565b6000600280549050905090565b61012c81565b611ad2612673565b6003806005811115611ae757611ae6612ae7565b5b600060149054906101000a900460ff166005811115611b0957611b08612ae7565b5b14611b49576040517f08c379a0000000000000000000000000000000000000000000000000000000008152600401611b4090612c29565b60405180910390fd5b60008060005b600280549050811015611cab576001600060028381548110611b7457611b7361384a565b5b9060005260206000200160009054906101000a900473ffffffffffffffffffffffffffffffffffffffff1673ffffffffffffffffffffffffffffffffffffffff1673ffffffffffffffffffffffffffffffffffffffff16815260200190815260200160002060020160039054906101000a900460ff1615611c9e576001600060028381548110611c0757611c0661384a565b5b9060005260206000200160009054906101000a900473ffffffffffffffffffffffffffffffffffffffff1673ffffffffffffffffffffffffffffffffffffffff1673ffffffffffffffffffffffffffffffffffffffff16815260200190815260200160002060020160009054906101000a900461ffff1661ffff1683611c8d919061355d565b92508180611c9a90613879565b9250505b8080600101915050611b4f565b5060008111611cef576040517f08c379a0000000000000000000000000000000000000000000000000000000008152600401611ce690613933565b60405180910390fd5b8082611cfb9190613192565b60078190555060036002600754611d129190613121565b611d1c9190613192565b6008819055507fffffffffffffffffffffffffffffffffffffffffffffffffffffffffffffffff60098190555060005b60028054905081101561202157600060028281548110611d6f57611d6e61384a565b5b9060005260206000200160009054906101000a900473ffffffffffffffffffffffffffffffffffffffff169050600160008273ffffffffffffffffffffffffffffffffffffffff1673ffffffffffffffffffffffffffffffffffffffff16815260200190815260200160002060020160039054906101000a900460ff1615612013576000600854600160008473ffffffffffffffffffffffffffffffffffffffff1673ffffffffffffffffffffffffffffffffffffffff16815260200190815260200160002060020160009054906101000a900461ffff1661ffff1611611eb757600160008373ffffffffffffffffffffffffffffffffffffffff1673ffffffffffffffffffffffffffffffffffffffff16815260200190815260200160002060020160009054906101000a900461ffff1661ffff16600854611eb291906131c3565b611f1a565b600854600160008473ffffffffffffffffffffffffffffffffffffffff1673ffffffffffffffffffffffffffffffffffffffff16815260200190815260200160002060020160009054906101000a900461ffff1661ffff16611f1991906131c3565b5b9050600954811015611fa3578060098190555060066000611f3b91906127c6565b6006829080600181540180825580915050600190039060005260206000200160009091909190916101000a81548173ffffffffffffffffffffffffffffffffffffffff021916908373ffffffffffffffffffffffffffffffffffffffff160217905550612011565b6009548103612010576006829080600181540180825580915050600190039060005260206000200160009091909190916101000a81548173ffffffffffffffffffffffffffffffffffffffff021916908373ffffffffffffffffffffffffffffffffffffffff1602179055505b5b505b508080600101915050611d4c565b5060006006805490501161206a576040517f08c379a0000000000000000000000000000000000000000000000000000000008152600401612061906139c5565b60405180910390fd5b6001600680549050036120fc57600660008154811061208c5761208b61384a565b5b9060005260206000200160009054906101000a900473ffffffffffffffffffffffffffffffffffffffff16600560016101000a81548173ffffffffffffffffffffffffffffffffffffffff021916908373ffffffffffffffffffffffffffffffffffffffff16021790555061217d565b60066000815481106121115761211061384a565b5b9060005260206000200160009054906101000a900473ffffffffffffffffffffffffffffffffffffffff16600560016101000a81548173ffffffffffffffffffffffffffffffffffffffff021916908373ffffffffffffffffffffffffffffffffffffffff1602179055505b6004600060146101000a81548160ff021916908360058111156121a3576121a2612ae7565b5b02179055507fd52a340578501e11001149af511ab5b02b95aa5387842a6f2b4aa9db6d58f099600754600854600560019054906101000a900473ffffffffffffffffffffffffffffffffffffffff1660016000600560019054906101000a900473ffffffffffffffffffffffffffffffffffffffff1673ffffffffffffffffffffffffffffffffffffffff1673ffffffffffffffffffffffffffffffffffffffff16815260200190815260200160002060020160009054906101000a900461ffff1660405161227594939291906139e5565b60405180910390a1505050565b7f000000000000000000000000000000000000000000000000000000000000000081565b600560019054906101000a900473ffffffffffffffffffffffffffffffffffffffff1681565b600060149054906101000a900460ff1681565b60075481565b60018060058111156122fa576122f9612ae7565b5b600060149054906101000a900460ff16600581111561231c5761231b612ae7565b5b1461235c576040517f08c379a000000000000000000000000000000000000000000000000000000000815260040161235390612c29565b60405180910390fd5b60035442106123a0576040517f08c379a000000000000000000000000000000000000000000000000000000000815260040161239790612cbb565b60405180910390fd5b6000600160003373ffffffffffffffffffffffffffffffffffffffff1673ffffffffffffffffffffffffffffffffffffffff1681526020019081526020016000206000015411612425576040517f08c379a000000000000000000000000000000000000000000000000000000000815260040161241c90613a9c565b60405180910390fd5b600160003373ffffffffffffffffffffffffffffffffffffffff1673ffffffffffffffffffffffffffffffffffffffff16815260200190815260200160002060020160029054906101000a900460ff16156124b5576040517f08c379a00000000000000000000000000000000000000000000000000000000081526004016124ac90613b2e565b60405180910390fd5b6000801b82036124fa576040517f08c379a00000000000000000000000000000000000000000000000000000000081526004016124f190613b9a565b60405180910390fd5b81600160003373ffffffffffffffffffffffffffffffffffffffff1673ffffffffffffffffffffffffffffffffffffffff1681526020019081526020016000206001018190555060018060003373ffffffffffffffffffffffffffffffffffffffff1673ffffffffffffffffffffffffffffffffffffffff16815260200190815260200160002060020160026101000a81548160ff0219169083151502179055503373ffffffffffffffffffffffffffffffffffffffff167f1aad8d3803fb160a4c6f5263ff286489b139b2edc11e262eba94d75f3b181d83836040516125e19190613bba565b60405180910390a25050565b6125f5612673565b600073ffffffffffffffffffffffffffffffffffffffff168173ffffffffffffffffffffffffffffffffffffffff16036126675760006040517f1e4fbdf700000000000000000000000000000000000000000000000000000000815260040161265e91906128ad565b60405180910390fd5b612670816126fa565b50565b61267b6127be565b73ffffffffffffffffffffffffffffffffffffffff16612699611691565b73ffffffffffffffffffffffffffffffffffffffff16146126f8576126bc6127be565b6040517f118cdaa70000000000000000000000000000000000000000000000000000000081526004016126ef91906128ad565b60405180910390fd5b565b60008060009054906101000a900473ffffffffffffffffffffffffffffffffffffffff169050816000806101000a81548173ffffffffffffffffffffffffffffffffffffffff021916908373ffffffffffffffffffffffffffffffffffffffff1602179055508173ffffffffffffffffffffffffffffffffffffffff168173ffffffffffffffffffffffffffffffffffffffff167f8be0079c531659141344cd1fd0a4f28419497f9722a3daafe3b4186f6b6457e060405160405180910390a35050565b600033905090565b50805460008255906000526020600020908101906127e491906127e7565b50565b5b808211156128005760008160009055506001016127e8565b5090565b600080fd5b6000819050919050565b61281c81612809565b811461282757600080fd5b50565b60008135905061283981612813565b92915050565b60006020828403121561285557612854612804565b5b60006128638482850161282a565b91505092915050565b600073ffffffffffffffffffffffffffffffffffffffff82169050919050565b60006128978261286c565b9050919050565b6128a78161288c565b82525050565b60006020820190506128c2600083018461289e565b92915050565b600061ffff82169050919050565b6128df816128c8565b81146128ea57600080fd5b50565b6000813590506128fc816128d6565b92915050565b6000819050919050565b61291581612902565b811461292057600080fd5b50565b6000813590506129328161290c565b92915050565b6000806040838503121561294f5761294e612804565b5b600061295d858286016128ed565b925050602061296e85828601612923565b9150509250929050565b61298181612809565b82525050565b600060208201905061299c6000830184612978565b92915050565b600060ff82169050919050565b6129b8816129a2565b82525050565b60006020820190506129d360008301846129af565b92915050565b60008115159050919050565b6129ee816129d9565b82525050565b6000602082019050612a0960008301846129e5565b92915050565b612a188161288c565b8114612a2357600080fd5b50565b600081359050612a3581612a0f565b92915050565b600060208284031215612a5157612a50612804565b5b6000612a5f84828501612a26565b91505092915050565b612a7181612902565b82525050565b612a80816128c8565b82525050565b600060c082019050612a9b6000830189612978565b612aa86020830188612a68565b612ab56040830187612a77565b612ac260608301866129e5565b612acf60808301856129e5565b612adc60a08301846129e5565b979650505050505050565b7f4e487b7100000000000000000000000000000000000000000000000000000000600052602160045260246000fd5b60068110612b2757612b26612ae7565b5b50565b6000819050612b3882612b16565b919050565b6000612b4882612b2a565b9050919050565b612b5881612b3d565b82525050565b6000602082019050612b736000830184612b4f565b92915050565b600060208284031215612b8f57612b8e612804565b5b6000612b9d84828501612923565b91505092915050565b600082825260208201905092915050565b7f46756e6b74696f6e20696e20646965736572205068617365206e69636874206560008201527f726c617562742e00000000000000000000000000000000000000000000000000602082015250565b6000612c13602783612ba6565b9150612c1e82612bb7565b604082019050919050565b60006020820190508181036000830152612c4281612c06565b9050919050565b7f446561646c696e65206675657220646965736520416b74696f6e20697374206160008201527f6267656c617566656e2e00000000000000000000000000000000000000000000602082015250565b6000612ca5602a83612ba6565b9150612cb082612c49565b604082019050919050565b60006020820190508181036000830152612cd481612c98565b9050919050565b7f4e75722072656769737472696572746520537069656c6572206475657266656e60008201527f206175666465636b656e2e000000000000000000000000000000000000000000602082015250565b6000612d37602b83612ba6565b9150612d4282612cdb565b604082019050919050565b60006020820190508181036000830152612d6681612d2a565b9050919050565b7f537069656c6572206d757373207a75657273742065696e656e20436f6d6d697460008201527f2065696e7265696368656e2e0000000000000000000000000000000000000000602082015250565b6000612dc9602c83612ba6565b9150612dd482612d6d565b604082019050919050565b60006020820190508181036000830152612df881612dbc565b9050919050565b7f537069656c65722068617420626572656974732061756667656465636b742e00600082015250565b6000612e35601f83612ba6565b9150612e4082612dff565b602082019050919050565b60006020820190508181036000830152612e6481612e28565b9050919050565b7f5a61686c206d757373207a7769736368656e203020756e642031303030206c6960008201527f6567656e2e000000000000000000000000000000000000000000000000000000602082015250565b6000612ec7602583612ba6565b9150612ed282612e6b565b604082019050919050565b60006020820190508181036000830152612ef681612eba565b9050919050565b60008160f01b9050919050565b6000612f1582612efd565b9050919050565b612f2d612f28826128c8565b612f0a565b82525050565b6000819050919050565b612f4e612f4982612902565b612f33565b82525050565b60008160601b9050919050565b6000612f6c82612f54565b9050919050565b6000612f7e82612f61565b9050919050565b612f96612f918261288c565b612f73565b82525050565b6000612fa88286612f1c565b600282019150612fb88285612f3d565b602082019150612fc88284612f85565b601482019150819050949350505050565b7f556e6775656c74696765722052657665616c2e205a61686c206f64657220536160008201527f6c742073696e642066616c7363682e0000000000000000000000000000000000602082015250565b6000613035602f83612ba6565b915061304082612fd9565b604082019050919050565b6000602082019050818103600083015261306481613028565b9050919050565b60006020820190506130806000830184612a77565b92915050565b7f476577696e6e65722068617420626572656974732061626765686f62656e2e00600082015250565b60006130bc601f83612ba6565b91506130c782613086565b602082019050919050565b600060208201905081810360008301526130eb816130af565b9050919050565b7f4e487b7100000000000000000000000000000000000000000000000000000000600052601160045260246000fd5b600061312c82612809565b915061313783612809565b925082820261314581612809565b9150828204841483151761315c5761315b6130f2565b5b5092915050565b7f4e487b7100000000000000000000000000000000000000000000000000000000600052601260045260246000fd5b600061319d82612809565b91506131a883612809565b9250826131b8576131b7613163565b5b828204905092915050565b60006131ce82612809565b91506131d983612809565b92508282039050818111156131f1576131f06130f2565b5b92915050565b600081905092915050565b50565b60006132126000836131f7565b915061321d82613202565b600082019050919050565b600061323382613205565b9150819050919050565b7f45746865722d5472616e7366657220616e20476577696e6e6572206665686c6760008201527f657363686c6167656e2e00000000000000000000000000000000000000000000602082015250565b6000613299602a83612ba6565b91506132a48261323d565b604082019050919050565b600060208201905081810360008301526132c88161328c565b9050919050565b7f536572766963656765627565687220777572646520626572656974732061626760008201527f65686f62656e2e00000000000000000000000000000000000000000000000000602082015250565b600061332b602783612ba6565b9150613336826132cf565b604082019050919050565b6000602082019050818103600083015261335a8161331e565b9050919050565b7f45746865722d5472616e7366657220616e20537069656c6c656974657220666560008201527f686c67657363686c6167656e2e00000000000000000000000000000000000000602082015250565b60006133bd602d83612ba6565b91506133c882613361565b604082019050919050565b600060208201905081810360008301526133ec816133b0565b9050919050565b7f4b65696e65204175737a61686c756e6773626572656368746967756e672e0000600082015250565b6000613429601e83612ba6565b9150613434826133f3565b602082019050919050565b600060208201905081810360008301526134588161341c565b9050919050565b7f556562657267616e67206e6f6368206e696368742065726c617562742e000000600082015250565b6000613495601d83612ba6565b91506134a08261345f565b602082019050919050565b600060208201905081810360008301526134c481613488565b9050919050565b7f4e696368742067656e756567656e6420537069656c657220626569676574726560008201527f74656e2e00000000000000000000000000000000000000000000000000000000602082015250565b6000613527602483612ba6565b9150613532826134cb565b604082019050919050565b600060208201905081810360008301526135568161351a565b9050919050565b600061356882612809565b915061357383612809565b925082820190508082111561358b5761358a6130f2565b5b92915050565b60006040820190506135a66000830185612b4f565b6135b36020830184612978565b9392505050565b7f4e757220537069656c6c6569746572206b616e6e20537069656c206265656e6460008201527f656e2e0000000000000000000000000000000000000000000000000000000000602082015250565b6000613616602383612ba6565b9150613621826135ba565b604082019050919050565b6000602082019050818103600083015261364581613609565b9050919050565b7f4175737a61686c756e67656e206e6f6368206e6963687420616267657363686c60008201527f6f7373656e2e0000000000000000000000000000000000000000000000000000602082015250565b60006136a8602683612ba6565b91506136b38261364c565b604082019050919050565b600060208201905081810360008301526136d78161369b565b9050919050565b6000819050919050565b6000819050919050565b600061370d613708613703846136de565b6136e8565b612809565b9050919050565b61371d816136f2565b82525050565b60006040820190506137386000830185612b4f565b6137456020830184613714565b9392505050565b7f46616c7363686572205765747465696e7361747a20676573656e6465742e0000600082015250565b6000613782601e83612ba6565b915061378d8261374c565b602082019050919050565b600060208201905081810360008301526137b181613775565b9050919050565b7f537069656c6572206861742062657265697473207465696c67656e6f6d6d656e60008201527f2e00000000000000000000000000000000000000000000000000000000000000602082015250565b6000613814602183612ba6565b915061381f826137b8565b604082019050919050565b6000602082019050818103600083015261384381613807565b9050919050565b7f4e487b7100000000000000000000000000000000000000000000000000000000600052603260045260246000fd5b600061388482612809565b91507fffffffffffffffffffffffffffffffffffffffffffffffffffffffffffffffff82036138b6576138b56130f2565b5b600182019050919050565b7f4e69656d616e64206861742061756667656465636b742c20537069656c206b6160008201527f6e6e206e696368742061757367657765727465742077657264656e2e00000000602082015250565b600061391d603c83612ba6565b9150613928826138c1565b604082019050919050565b6000602082019050818103600083015261394c81613910565b9050919050565b7f496e7465726e6572204665686c65723a204b65696e20706f74656e7a69656c6c60008201527f657220476577696e6e657220676566756e64656e2e0000000000000000000000602082015250565b60006139af603583612ba6565b91506139ba82613953565b604082019050919050565b600060208201905081810360008301526139de816139a2565b9050919050565b60006080820190506139fa6000830187612978565b613a076020830186612978565b613a14604083018561289e565b613a216060830184612a77565b95945050505050565b7f4e75722072656769737472696572746520537069656c6572206475657266656e60008201527f20636f6d6d697474656e2e000000000000000000000000000000000000000000602082015250565b6000613a86602b83612ba6565b9150613a9182613a2a565b604082019050919050565b60006020820190508181036000830152613ab581613a79565b9050919050565b7f537069656c65722068617420626572656974732065696e656e20436f6d6d697460008201527f2065696e67657265696368742e00000000000000000000000000000000000000602082015250565b6000613b18602d83612ba6565b9150613b2382613abc565b604082019050919050565b60006020820190508181036000830152613b4781613b0b565b9050919050565b7f436f6d6d69746d656e742064617266206e69636874206c656572207365696e2e600082015250565b6000613b84602083612ba6565b9150613b8f82613b4e565b602082019050919050565b60006020820190508181036000830152613bb381613b77565b9050919050565b6000602082019050613bcf6000830184612a68565b9291505056fea26469706673582212204a54a5973ae9677e856fe9890e2406f834ec37eaadb73d3368d115098ae2622164736f6c634300081c0033a2646970667358221220d4c272f026ebe9b6efbd8b216f28aa67e8abc5d5164c4ac1fcfff9b81d94b0a364736f6c634300081c0033",
    "linkReferences": {},
    "deployedLinkReferences": {}
}