{
  "_format": "hh-sol-artifact-1",
  "contractName": "TwoThirdsAverageGame",
  "sourceName": "contracts/TwoThirdsAverageGame.sol",
  "abi": [
    {
      "inputs": [
        {
          "internalType": "uint256",
          "name": "_wagerAmount",
          "type": "uint256"
        },
        {
          "internalType": "uint8",
          "name": "_serviceFeePercentage",
          "type": "uint8"
        },
        {
          "internalType": "address",
          "name": "_initialOwner",
          "type": "address"
        }
      ],
      "stateMutability": "nonpayable",
      "type": "constructor"
    },
    {
      "inputs": [
        {
          "internalType": "address",
          "name": "owner",
          "type": "address"
        }
      ],
      "name": "OwnableInvalidOwner",
      "type": "error"
    },
    {
      "inputs": [
        {
          "internalType": "address",
          "name": "account",
          "type": "address"
        }
      ],
      "name": "OwnableUnauthorizedAccount",
      "type": "error"
    },
    {
      "anonymous": false,
      "inputs": [
        {
          "indexed": true,
          "internalType": "address",
          "name": "empfaenger",
          "type": "address"
        },
        {
          "indexed": false,
          "internalType": "uint256",
          "name": "betrag",
          "type": "uint256"
        }
      ],
      "name": "AuszahlungErfolgt",
      "type": "event"
    },
    {
      "anonymous": false,
      "inputs": [
        {
          "indexed": true,
          "internalType": "address",
          "name": "previousOwner",
          "type": "address"
        },
        {
          "indexed": true,
          "internalType": "address",
          "name": "newOwner",
          "type": "address"
        }
      ],
      "name": "OwnershipTransferred",
      "type": "event"
    },
    {
      "anonymous": false,
      "inputs": [
        {
          "indexed": false,
          "internalType": "enum TwoThirdsAverageGame.SpielPhase",
          "name": "neuePhase",
          "type": "uint8"
        },
        {
          "indexed": false,
          "internalType": "uint256",
          "name": "neueDeadlineBlock",
          "type": "uint256"
        }
      ],
      "name": "PhaseGeaendert",
      "type": "event"
    },
    {
      "anonymous": false,
      "inputs": [
        {
          "indexed": false,
          "internalType": "string",
          "name": "grund",
          "type": "string"
        }
      ],
      "name": "SpielAbgebrochen",
      "type": "event"
    },
    {
      "anonymous": false,
      "inputs": [
        {
          "indexed": false,
          "internalType": "uint256",
          "name": "durchschnitt",
          "type": "uint256"
        },
        {
          "indexed": false,
          "internalType": "uint256",
          "name": "zielwert",
          "type": "uint256"
        },
        {
          "indexed": false,
          "internalType": "address",
          "name": "gewinner",
          "type": "address"
        },
        {
          "indexed": false,
          "internalType": "uint16",
          "name": "gewinnerZahl",
          "type": "uint16"
        }
      ],
      "name": "SpielBerechnet",
      "type": "event"
    },
    {
      "anonymous": false,
      "inputs": [
        {
          "indexed": true,
          "internalType": "address",
          "name": "spieler",
          "type": "address"
        },
        {
          "indexed": false,
          "internalType": "uint256",
          "name": "einsatz",
          "type": "uint256"
        }
      ],
      "name": "SpielerBeigetreten",
      "type": "event"
    },
    {
      "anonymous": false,
      "inputs": [
        {
          "indexed": true,
          "internalType": "address",
          "name": "spieler",
          "type": "address"
        },
        {
          "indexed": false,
          "internalType": "uint16",
          "name": "zahl",
          "type": "uint16"
        }
      ],
      "name": "SpielerHatAufgedeckt",
      "type": "event"
    },
    {
      "anonymous": false,
      "inputs": [
        {
          "indexed": true,
          "internalType": "address",
          "name": "spieler",
          "type": "address"
        },
        {
          "indexed": false,
          "internalType": "bytes32",
          "name": "commitment",
          "type": "bytes32"
        }
      ],
      "name": "SpielerHatCommittet",
      "type": "event"
    },
    {
      "inputs": [],
      "name": "COMMIT_BLOCKS",
      "outputs": [
        {
          "internalType": "uint256",
          "name": "",
          "type": "uint256"
        }
      ],
      "stateMutability": "view",
      "type": "function"
    },
    {
      "inputs": [],
      "name": "MIN_PLAYERS",
      "outputs": [
        {
          "internalType": "uint8",
          "name": "",
          "type": "uint8"
        }
      ],
      "stateMutability": "view",
      "type": "function"
    },
    {
      "inputs": [],
      "name": "REGISTRATION_BLOCKS",
      "outputs": [
        {
          "internalType": "uint256",
          "name": "",
          "type": "uint256"
        }
      ],
      "stateMutability": "view",
      "type": "function"
    },
    {
      "inputs": [],
      "name": "REVEAL_BLOCKS",
      "outputs": [
        {
          "internalType": "uint256",
          "name": "",
          "type": "uint256"
        }
      ],
      "stateMutability": "view",
      "type": "function"
    },
    {
      "inputs": [],
      "name": "SERVICE_FEE_PERCENTAGE",
      "outputs": [
        {
          "internalType": "uint8",
          "name": "",
          "type": "uint8"
        }
      ],
      "stateMutability": "view",
      "type": "function"
    },
    {
      "inputs": [],
      "name": "WAGER_AMOUNT",
      "outputs": [
        {
          "internalType": "uint256",
          "name": "",
          "type": "uint256"
        }
      ],
      "stateMutability": "view",
      "type": "function"
    },
    {
      "inputs": [],
      "name": "advancePhase",
      "outputs": [],
      "stateMutability": "nonpayable",
      "type": "function"
    },
    {
      "inputs": [],
      "name": "aktuellePhase",
      "outputs": [
        {
          "internalType": "enum TwoThirdsAverageGame.SpielPhase",
          "name": "",
          "type": "uint8"
        }
      ],
      "stateMutability": "view",
      "type": "function"
    },
    {
      "inputs": [],
      "name": "averageValue",
      "outputs": [
        {
          "internalType": "uint256",
          "name": "",
          "type": "uint256"
        }
      ],
      "stateMutability": "view",
      "type": "function"
    },
    {
      "inputs": [],
      "name": "beitreten",
      "outputs": [],
      "stateMutability": "payable",
      "type": "function"
    },
    {
      "inputs": [],
      "name": "calculateResult",
      "outputs": [],
      "stateMutability": "nonpayable",
      "type": "function"
    },
    {
      "inputs": [
        {
          "internalType": "bytes32",
          "name": "_commitment",
          "type": "bytes32"
        }
      ],
      "name": "commit",
      "outputs": [],
      "stateMutability": "nonpayable",
      "type": "function"
    },
    {
      "inputs": [],
      "name": "deadlineBlock",
      "outputs": [
        {
          "internalType": "uint256",
          "name": "",
          "type": "uint256"
        }
      ],
      "stateMutability": "view",
      "type": "function"
    },
    {
      "inputs": [],
      "name": "getSpielerAnzahl",
      "outputs": [
        {
          "internalType": "uint256",
          "name": "",
          "type": "uint256"
        }
      ],
      "stateMutability": "view",
      "type": "function"
    },
    {
      "inputs": [],
      "name": "owner",
      "outputs": [
        {
          "internalType": "address",
          "name": "",
          "type": "address"
        }
      ],
      "stateMutability": "view",
      "type": "function"
    },
    {
      "inputs": [],
      "name": "pot",
      "outputs": [
        {
          "internalType": "uint256",
          "name": "",
          "type": "uint256"
        }
      ],
      "stateMutability": "view",
      "type": "function"
    },
    {
      "inputs": [
        {
          "internalType": "uint256",
          "name": "",
          "type": "uint256"
        }
      ],
      "name": "potentialWinners",
      "outputs": [
        {
          "internalType": "address",
          "name": "",
          "type": "address"
        }
      ],
      "stateMutability": "view",
      "type": "function"
    },
    {
      "inputs": [],
      "name": "reclaimWager",
      "outputs": [],
      "stateMutability": "nonpayable",
      "type": "function"
    },
    {
      "inputs": [],
      "name": "renounceOwnership",
      "outputs": [],
      "stateMutability": "nonpayable",
      "type": "function"
    },
    {
      "inputs": [
        {
          "internalType": "uint16",
          "name": "_number",
          "type": "uint16"
        },
        {
          "internalType": "bytes32",
          "name": "_salt",
          "type": "bytes32"
        }
      ],
      "name": "reveal",
      "outputs": [],
      "stateMutability": "nonpayable",
      "type": "function"
    },
    {
      "inputs": [],
      "name": "serviceFeeWithdrawn",
      "outputs": [
        {
          "internalType": "bool",
          "name": "",
          "type": "bool"
        }
      ],
      "stateMutability": "view",
      "type": "function"
    },
    {
      "inputs": [
        {
          "internalType": "address",
          "name": "",
          "type": "address"
        }
      ],
      "name": "spielerDaten",
      "outputs": [
        {
          "internalType": "uint256",
          "name": "wagerAmount",
          "type": "uint256"
        },
        {
          "internalType": "bytes32",
          "name": "commitment",
          "type": "bytes32"
        },
        {
          "internalType": "uint16",
          "name": "revealedNumber",
          "type": "uint16"
        },
        {
          "internalType": "bool",
          "name": "hasCommitted",
          "type": "bool"
        },
        {
          "internalType": "bool",
          "name": "hasRevealed",
          "type": "bool"
        },
        {
          "internalType": "bool",
          "name": "hasWithdrawn",
          "type": "bool"
        }
      ],
      "stateMutability": "view",
      "type": "function"
    },
    {
      "inputs": [
        {
          "internalType": "uint256",
          "name": "",
          "type": "uint256"
        }
      ],
      "name": "spielerListe",
      "outputs": [
        {
          "internalType": "address",
          "name": "",
          "type": "address"
        }
      ],
      "stateMutability": "view",
      "type": "function"
    },
    {
      "inputs": [],
      "name": "targetValue",
      "outputs": [
        {
          "internalType": "uint256",
          "name": "",
          "type": "uint256"
        }
      ],
      "stateMutability": "view",
      "type": "function"
    },
    {
      "inputs": [
        {
          "internalType": "address",
          "name": "newOwner",
          "type": "address"
        }
      ],
      "name": "transferOwnership",
      "outputs": [],
      "stateMutability": "nonpayable",
      "type": "function"
    },
    {
      "inputs": [],
      "name": "winner",
      "outputs": [
        {
          "internalType": "address",
          "name": "",
          "type": "address"
        }
      ],
      "stateMutability": "view",
      "type": "function"
    },
    {
      "inputs": [],
      "name": "winningDistance",
      "outputs": [
        {
          "internalType": "uint256",
          "name": "",
          "type": "uint256"
        }
      ],
      "stateMutability": "view",
      "type": "function"
    },
    {
      "inputs": [],
      "name": "withdrawPrize",
      "outputs": [],
      "stateMutability": "nonpayable",
      "type": "function"
    },
    {
      "inputs": [],
      "name": "withdrawServiceFee",
      "outputs": [],
      "stateMutability": "nonpayable",
      "type": "function"
    }
  ],
  "bytecode": "0x60c060405234801561001057600080fd5b506040516143043803806143048339818101604052810190610032919061036c565b80600073ffffffffffffffffffffffffffffffffffffffff168173ffffffffffffffffffffffffffffffffffffffff16036100a55760006040517f1e4fbdf700000000000000000000000000000000000000000000000000000000815260040161009c91906103ce565b60405180910390fd5b6100b4816101d660201b60201c565b50600083116100f8576040517f08c379a00000000000000000000000000000000000000000000000000000000081526004016100ef9061046c565b60405180910390fd5b60648260ff16111561013f576040517f08c379a0000000000000000000000000000000000000000000000000000000008152600401610136906104fe565b60405180910390fd5b82608081815250508160ff1660a08160ff168152505060008060146101000a81548160ff0219169083600681111561017a5761017961051e565b5b021790555060324361018c919061057c565b6003819055507f8361a211b9a77318f0c4f0437736316dafd0c35b0437a5174da6913271e7e20360006003546040516101c6929190610607565b60405180910390a1505050610630565b60008060009054906101000a900473ffffffffffffffffffffffffffffffffffffffff169050816000806101000a81548173ffffffffffffffffffffffffffffffffffffffff021916908373ffffffffffffffffffffffffffffffffffffffff1602179055508173ffffffffffffffffffffffffffffffffffffffff168173ffffffffffffffffffffffffffffffffffffffff167f8be0079c531659141344cd1fd0a4f28419497f9722a3daafe3b4186f6b6457e060405160405180910390a35050565b600080fd5b6000819050919050565b6102b28161029f565b81146102bd57600080fd5b50565b6000815190506102cf816102a9565b92915050565b600060ff82169050919050565b6102eb816102d5565b81146102f657600080fd5b50565b600081519050610308816102e2565b92915050565b600073ffffffffffffffffffffffffffffffffffffffff82169050919050565b60006103398261030e565b9050919050565b6103498161032e565b811461035457600080fd5b50565b60008151905061036681610340565b92915050565b6000806000606084860312156103855761038461029a565b5b6000610393868287016102c0565b93505060206103a4868287016102f9565b92505060406103b586828701610357565b9150509250925092565b6103c88161032e565b82525050565b60006020820190506103e360008301846103bf565b92915050565b600082825260208201905092915050565b7f5765747465696e7361747a206d7573732067726f657373657220616c7320302060008201527f7365696e2e000000000000000000000000000000000000000000000000000000602082015250565b60006104566025836103e9565b9150610461826103fa565b604082019050919050565b6000602082019050818103600083015261048581610449565b9050919050565b7f53657276696365676562756568722064617266206d6178696d616c203130302560008201527f207365696e2e0000000000000000000000000000000000000000000000000000602082015250565b60006104e86026836103e9565b91506104f38261048c565b604082019050919050565b60006020820190508181036000830152610517816104db565b9050919050565b7f4e487b7100000000000000000000000000000000000000000000000000000000600052602160045260246000fd5b7f4e487b7100000000000000000000000000000000000000000000000000000000600052601160045260246000fd5b60006105878261029f565b91506105928361029f565b92508282019050808211156105aa576105a961054d565b5b92915050565b600781106105c1576105c061051e565b5b50565b60008190506105d2826105b0565b919050565b60006105e2826105c4565b9050919050565b6105f2816105d7565b82525050565b6106018161029f565b82525050565b600060408201905061061c60008301856105e9565b61062960208301846105f8565b9392505050565b60805160a051613c9a61066a60003960008181610afa01528181610d1301526116fa01526000818161194a0152611fe50152613c9a6000f3fe6080604052600436106101c25760003560e01c8063849bb2db116100f7578063be25a71811610095578063e723c51d11610064578063e723c51d1461059a578063e867c296146105c5578063f14fcbc8146105f0578063f2fde38b14610619576101c2565b8063be25a71814610516578063cb910bda1461052d578063dfbf53ae14610558578063e616057214610583576101c2565b80638da5cb5b116100d15780638da5cb5b14610474578063a10efef11461049f578063ad20586a146104a9578063b7e7593d146104eb576101c2565b8063849bb2db1461040757806385f07bbe1461041e5780638951883414610449576101c2565b80634ba2363a11610164578063572dbdcb1161013e578063572dbdcb146103835780636e008b35146103ae578063715018a6146103c5578063793ab7d0146103dc576101c2565b80634ba2363a146102f05780635535f5341461031b5780635571552d14610358576101c2565b80632edfb42a116101a05780632edfb42a1461025857806341b0c9ba1461028357806344cd1309146102ae57806348d37a58146102d9576101c2565b806319b410dd146101c75780631af08b05146101f25780631f22f2dc1461022f575b600080fd5b3480156101d357600080fd5b506101dc610642565b6040516101e991906127f7565b60405180910390f35b3480156101fe57600080fd5b5061021960048036038101906102149190612843565b610647565b60405161022691906128b1565b60405180910390f35b34801561023b57600080fd5b506102566004803603810190610251919061293c565b610686565b005b34801561026457600080fd5b5061026d610aec565b60405161027a91906127f7565b60405180910390f35b34801561028f57600080fd5b50610298610af2565b6040516102a591906127f7565b60405180910390f35b3480156102ba57600080fd5b506102c3610af8565b6040516102d09190612998565b60405180910390f35b3480156102e557600080fd5b506102ee610b1c565b005b3480156102fc57600080fd5b50610305610e60565b60405161031291906127f7565b60405180910390f35b34801561032757600080fd5b50610342600480360381019061033d9190612843565b610e66565b60405161034f91906128b1565b60405180910390f35b34801561036457600080fd5b5061036d610ea5565b60405161037a91906127f7565b60405180910390f35b34801561038f57600080fd5b50610398610eaa565b6040516103a591906127f7565b60405180910390f35b3480156103ba57600080fd5b506103c3610eb0565b005b3480156103d157600080fd5b506103da6115f1565b005b3480156103e857600080fd5b506103f1611605565b6040516103fe91906127f7565b60405180910390f35b34801561041357600080fd5b5061041c61160a565b005b34801561042a57600080fd5b5061043361184c565b6040516104409190612998565b60405180910390f35b34801561045557600080fd5b5061045e611851565b60405161046b91906129ce565b60405180910390f35b34801561048057600080fd5b50610489611864565b60405161049691906128b1565b60405180910390f35b6104a761188d565b005b3480156104b557600080fd5b506104d060048036038101906104cb9190612a15565b611c13565b6040516104e296959493929190612a60565b60405180910390f35b3480156104f757600080fd5b50610500611c84565b60405161050d91906127f7565b60405180910390f35b34801561052257600080fd5b5061052b611c91565b005b34801561053957600080fd5b50610542611fe3565b60405161054f91906127f7565b60405180910390f35b34801561056457600080fd5b5061056d612007565b60405161057a91906128b1565b60405180910390f35b34801561058f57600080fd5b5061059861202d565b005b3480156105a657600080fd5b506105af6122a6565b6040516105bc9190612b38565b60405180910390f35b3480156105d157600080fd5b506105da6122b9565b6040516105e791906127f7565b60405180910390f35b3480156105fc57600080fd5b5061061760048036038101906106129190612b53565b6122bf565b005b34801561062557600080fd5b50610640600480360381019061063b9190612a15565b6125c7565b005b601981565b6006818154811061065757600080fd5b906000526020600020016000915054906101000a900473ffffffffffffffffffffffffffffffffffffffff1681565b600280600681111561069b5761069a612ac1565b5b600060149054906101000a900460ff1660068111156106bd576106bc612ac1565b5b146106fd576040517f08c379a00000000000000000000000000000000000000000000000000000000081526004016106f490612c03565b60405180910390fd5b6003544310610741576040517f08c379a000000000000000000000000000000000000000000000000000000000815260040161073890612c95565b60405180910390fd5b6000600160003373ffffffffffffffffffffffffffffffffffffffff1673ffffffffffffffffffffffffffffffffffffffff16815260200190815260200160002060000154116107c6576040517f08c379a00000000000000000000000000000000000000000000000000000000081526004016107bd90612d27565b60405180910390fd5b600160003373ffffffffffffffffffffffffffffffffffffffff1673ffffffffffffffffffffffffffffffffffffffff16815260200190815260200160002060020160029054906101000a900460ff16610855576040517f08c379a000000000000000000000000000000000000000000000000000000000815260040161084c90612db9565b60405180910390fd5b600160003373ffffffffffffffffffffffffffffffffffffffff1673ffffffffffffffffffffffffffffffffffffffff16815260200190815260200160002060020160039054906101000a900460ff16156108e5576040517f08c379a00000000000000000000000000000000000000000000000000000000081526004016108dc90612e25565b60405180910390fd5b6103e88361ffff16111561092e576040517f08c379a000000000000000000000000000000000000000000000000000000000815260040161092590612eb7565b60405180910390fd5b600083833360405160200161094593929190612f76565b604051602081830303815290604052805190602001209050600160003373ffffffffffffffffffffffffffffffffffffffff1673ffffffffffffffffffffffffffffffffffffffff1681526020019081526020016000206001015481146109e1576040517f08c379a00000000000000000000000000000000000000000000000000000000081526004016109d890613025565b60405180910390fd5b83600160003373ffffffffffffffffffffffffffffffffffffffff1673ffffffffffffffffffffffffffffffffffffffff16815260200190815260200160002060020160006101000a81548161ffff021916908361ffff16021790555060018060003373ffffffffffffffffffffffffffffffffffffffff1673ffffffffffffffffffffffffffffffffffffffff16815260200190815260200160002060020160036101000a81548160ff0219169083151502179055503373ffffffffffffffffffffffffffffffffffffffff167f02611ce3540950ad36b01d44bdfefc5091a4f5c486cbe0ab219080fde911492785604051610ade9190613045565b60405180910390a250505050565b60035481565b60085481565b7f000000000000000000000000000000000000000000000000000000000000000081565b6004806006811115610b3157610b30612ac1565b5b600060149054906101000a900460ff166006811115610b5357610b52612ac1565b5b14610b93576040517f08c379a0000000000000000000000000000000000000000000000000000000008152600401610b8a90612c03565b60405180910390fd5b600560009054906101000a900473ffffffffffffffffffffffffffffffffffffffff1673ffffffffffffffffffffffffffffffffffffffff163373ffffffffffffffffffffffffffffffffffffffff1614610c23576040517f08c379a0000000000000000000000000000000000000000000000000000000008152600401610c1a906130d2565b60405180910390fd5b600160003373ffffffffffffffffffffffffffffffffffffffff1673ffffffffffffffffffffffffffffffffffffffff16815260200190815260200160002060020160049054906101000a900460ff1615610cb3576040517f08c379a0000000000000000000000000000000000000000000000000000000008152600401610caa9061313e565b60405180910390fd5b60018060003373ffffffffffffffffffffffffffffffffffffffff1673ffffffffffffffffffffffffffffffffffffffff16815260200190815260200160002060020160046101000a81548160ff021916908315150217905550600060647f000000000000000000000000000000000000000000000000000000000000000060ff16600454610d42919061318d565b610d4c91906131fe565b9050600081600454610d5e919061322f565b905060003373ffffffffffffffffffffffffffffffffffffffff1682604051610d8690613294565b60006040518083038185875af1925050503d8060008114610dc3576040519150601f19603f3d011682016040523d82523d6000602084013e610dc8565b606091505b5050905080610e0c576040517f08c379a0000000000000000000000000000000000000000000000000000000008152600401610e039061331b565b60405180910390fd5b3373ffffffffffffffffffffffffffffffffffffffff167f8df6ea29e9999fca9954eb2029dd32bc88491d414e6e291639995dc8157e803283604051610e5291906127f7565b60405180910390a250505050565b60045481565b60028181548110610e7657600080fd5b906000526020600020016000915054906101000a900473ffffffffffffffffffffffffffffffffffffffff1681565b603281565b60095481565b6003806006811115610ec557610ec4612ac1565b5b600060149054906101000a900460ff166006811115610ee757610ee6612ac1565b5b14610f27576040517f08c379a0000000000000000000000000000000000000000000000000000000008152600401610f1e90612c03565b60405180910390fd5b60008060005b6002805490508110156110135760006001600060028481548110610f5457610f5361333b565b5b9060005260206000200160009054906101000a900473ffffffffffffffffffffffffffffffffffffffff1673ffffffffffffffffffffffffffffffffffffffff1673ffffffffffffffffffffffffffffffffffffffff16815260200190815260200160002090508060020160039054906101000a900460ff1615611005578060020160009054906101000a900461ffff1661ffff1684610ff4919061336a565b935082806110019061339e565b9350505b508080600101915050610f2d565b50600081036110cc576006600060146101000a81548160ff0219169083600681111561104257611041612ac1565b5b02179055507f7416f78c596b20167f720c77cfff2c904ce54e47b4bb5f2b5631b923a100180360405161107490613458565b60405180910390a17f8361a211b9a77318f0c4f0437736316dafd0c35b0437a5174da6913271e7e203600060149054906101000a900460ff1660006040516110bd9291906134bd565b60405180910390a150506115ee565b80826110d891906131fe565b600781905550600360026007546110ef919061318d565b6110f991906131fe565b6008819055507fffffffffffffffffffffffffffffffffffffffffffffffffffffffffffffffff60098190555060005b60028054905081101561134a5760006002828154811061114c5761114b61333b565b5b9060005260206000200160009054906101000a900473ffffffffffffffffffffffffffffffffffffffff1690506000600160008373ffffffffffffffffffffffffffffffffffffffff1673ffffffffffffffffffffffffffffffffffffffff16815260200190815260200160002090508060020160039054906101000a900460ff161561133b5760006008548260020160009054906101000a900461ffff1661ffff161161121d578160020160009054906101000a900461ffff1661ffff16600854611218919061322f565b611242565b6008548260020160009054906101000a900461ffff1661ffff16611241919061322f565b5b90506009548110156112cb57806009819055506006600061126391906127a0565b6006839080600181540180825580915050600190039060005260206000200160009091909190916101000a81548173ffffffffffffffffffffffffffffffffffffffff021916908373ffffffffffffffffffffffffffffffffffffffff160217905550611339565b6009548103611338576006839080600181540180825580915050600190039060005260206000200160009091909190916101000a81548173ffffffffffffffffffffffffffffffffffffffff021916908373ffffffffffffffffffffffffffffffffffffffff1602179055505b5b505b50508080600101915050611129565b506001600680549050036113dd57600660008154811061136d5761136c61333b565b5b9060005260206000200160009054906101000a900473ffffffffffffffffffffffffffffffffffffffff16600560006101000a81548173ffffffffffffffffffffffffffffffffffffffff021916908373ffffffffffffffffffffffffffffffffffffffff1602179055506114a2565b600060068054905042446004546040516020016113fc93929190613507565b6040516020818303038152906040528051906020012060001c61141f9190613544565b9050600681815481106114355761143461333b565b5b9060005260206000200160009054906101000a900473ffffffffffffffffffffffffffffffffffffffff16600560006101000a81548173ffffffffffffffffffffffffffffffffffffffff021916908373ffffffffffffffffffffffffffffffffffffffff160217905550505b6004600060146101000a81548160ff021916908360068111156114c8576114c7612ac1565b5b02179055507fd52a340578501e11001149af511ab5b02b95aa5387842a6f2b4aa9db6d58f099600754600854600560009054906101000a900473ffffffffffffffffffffffffffffffffffffffff1660016000600560009054906101000a900473ffffffffffffffffffffffffffffffffffffffff1673ffffffffffffffffffffffffffffffffffffffff1673ffffffffffffffffffffffffffffffffffffffff16815260200190815260200160002060020160009054906101000a900461ffff1660405161159a9493929190613575565b60405180910390a17f8361a211b9a77318f0c4f0437736316dafd0c35b0437a5174da6913271e7e203600060149054906101000a900460ff1660006040516115e39291906134bd565b60405180910390a150505b50565b6115f961264d565b61160360006126d4565b565b601981565b61161261264d565b600480600681111561162757611626612ac1565b5b600060149054906101000a900460ff16600681111561164957611648612ac1565b5b14611689576040517f08c379a000000000000000000000000000000000000000000000000000000000815260040161168090612c03565b60405180910390fd5b600560149054906101000a900460ff16156116d9576040517f08c379a00000000000000000000000000000000000000000000000000000000081526004016116d09061362c565b60405180910390fd5b6001600560146101000a81548160ff021916908315150217905550600060647f000000000000000000000000000000000000000000000000000000000000000060ff16600454611729919061318d565b61173391906131fe565b90506000811115611848576000611748611864565b73ffffffffffffffffffffffffffffffffffffffff168260405161176b90613294565b60006040518083038185875af1925050503d80600081146117a8576040519150601f19603f3d011682016040523d82523d6000602084013e6117ad565b606091505b50509050806117f1576040517f08c379a00000000000000000000000000000000000000000000000000000000081526004016117e8906136be565b60405180910390fd5b6117f9611864565b73ffffffffffffffffffffffffffffffffffffffff167f8df6ea29e9999fca9954eb2029dd32bc88491d414e6e291639995dc8157e80328360405161183e91906127f7565b60405180910390a2505b5050565b600381565b600560149054906101000a900460ff1681565b60008060009054906101000a900473ffffffffffffffffffffffffffffffffffffffff16905090565b60008060068111156118a2576118a1612ac1565b5b600060149054906101000a900460ff1660068111156118c4576118c3612ac1565b5b14611904576040517f08c379a00000000000000000000000000000000000000000000000000000000081526004016118fb90612c03565b60405180910390fd5b6003544310611948576040517f08c379a000000000000000000000000000000000000000000000000000000000815260040161193f90612c95565b60405180910390fd5b7f000000000000000000000000000000000000000000000000000000000000000034146119aa576040517f08c379a00000000000000000000000000000000000000000000000000000000081526004016119a19061372a565b60405180910390fd5b6000600160003373ffffffffffffffffffffffffffffffffffffffff1673ffffffffffffffffffffffffffffffffffffffff1681526020019081526020016000206000015414611a2f576040517f08c379a0000000000000000000000000000000000000000000000000000000008152600401611a26906137bc565b60405180910390fd5b6002339080600181540180825580915050600190039060005260206000200160009091909190916101000a81548173ffffffffffffffffffffffffffffffffffffffff021916908373ffffffffffffffffffffffffffffffffffffffff1602179055506040518060c001604052803481526020016000801b8152602001600061ffff16815260200160001515815260200160001515815260200160001515815250600160003373ffffffffffffffffffffffffffffffffffffffff1673ffffffffffffffffffffffffffffffffffffffff168152602001908152602001600020600082015181600001556020820151816001015560408201518160020160006101000a81548161ffff021916908361ffff16021790555060608201518160020160026101000a81548160ff02191690831515021790555060808201518160020160036101000a81548160ff02191690831515021790555060a08201518160020160046101000a81548160ff0219169083151502179055509050503460046000828254611bbb919061336a565b925050819055503373ffffffffffffffffffffffffffffffffffffffff167f43233cd6fdb7813564a8927b95d173ab1d6305565e0a0b2bb6c236b53907538634604051611c0891906127f7565b60405180910390a250565b60016020528060005260406000206000915090508060000154908060010154908060020160009054906101000a900461ffff16908060020160029054906101000a900460ff16908060020160039054906101000a900460ff16908060020160049054906101000a900460ff16905086565b6000600280549050905090565b600354431015611cd6576040517f08c379a0000000000000000000000000000000000000000000000000000000008152600401611ccd9061384e565b60405180910390fd5b60006006811115611cea57611ce9612ac1565b5b600060149054906101000a900460ff166006811115611d0c57611d0b612ac1565b5b03611e5e57600360ff166002805490501015611dd0576006600060146101000a81548160ff02191690836006811115611d4857611d47612ac1565b5b02179055507f7416f78c596b20167f720c77cfff2c904ce54e47b4bb5f2b5631b923a1001803604051611d7a906138e0565b60405180910390a17f8361a211b9a77318f0c4f0437736316dafd0c35b0437a5174da6913271e7e203600060149054906101000a900460ff166000604051611dc39291906134bd565b60405180910390a1611e59565b6001600060146101000a81548160ff02191690836006811115611df657611df5612ac1565b5b0217905550601943611e08919061336a565b6003819055507f8361a211b9a77318f0c4f0437736316dafd0c35b0437a5174da6913271e7e203600060149054906101000a900460ff16600354604051611e50929190613900565b60405180910390a15b611fe1565b60016006811115611e7257611e71612ac1565b5b600060149054906101000a900460ff166006811115611e9457611e93612ac1565b5b03611f26576002600060146101000a81548160ff02191690836006811115611ebf57611ebe612ac1565b5b0217905550601943611ed1919061336a565b6003819055507f8361a211b9a77318f0c4f0437736316dafd0c35b0437a5174da6913271e7e203600060149054906101000a900460ff16600354604051611f19929190613900565b60405180910390a1611fe0565b60026006811115611f3a57611f39612ac1565b5b600060149054906101000a900460ff166006811115611f5c57611f5b612ac1565b5b03611fdf576003600060146101000a81548160ff02191690836006811115611f8757611f86612ac1565b5b021790555060006003819055507f8361a211b9a77318f0c4f0437736316dafd0c35b0437a5174da6913271e7e203600060149054906101000a900460ff16600354604051611fd6929190613900565b60405180910390a15b5b5b565b7f000000000000000000000000000000000000000000000000000000000000000081565b600560009054906101000a900473ffffffffffffffffffffffffffffffffffffffff1681565b600680600681111561204257612041612ac1565b5b600060149054906101000a900460ff16600681111561206457612063612ac1565b5b146120a4576040517f08c379a000000000000000000000000000000000000000000000000000000000815260040161209b90612c03565b60405180910390fd5b6000600160003373ffffffffffffffffffffffffffffffffffffffff1673ffffffffffffffffffffffffffffffffffffffff1681526020019081526020016000209050600081600001541161212e576040517f08c379a00000000000000000000000000000000000000000000000000000000081526004016121259061399b565b60405180910390fd5b8060020160049054906101000a900460ff1615612180576040517f08c379a000000000000000000000000000000000000000000000000000000000815260040161217790613a2d565b60405180910390fd5b60018160020160046101000a81548160ff02191690831515021790555060008160000154905060003373ffffffffffffffffffffffffffffffffffffffff16826040516121cc90613294565b60006040518083038185875af1925050503d8060008114612209576040519150601f19603f3d011682016040523d82523d6000602084013e61220e565b606091505b5050905080612252576040517f08c379a000000000000000000000000000000000000000000000000000000000815260040161224990613a99565b60405180910390fd5b3373ffffffffffffffffffffffffffffffffffffffff167f8df6ea29e9999fca9954eb2029dd32bc88491d414e6e291639995dc8157e80328360405161229891906127f7565b60405180910390a250505050565b600060149054906101000a900460ff1681565b60075481565b60018060068111156122d4576122d3612ac1565b5b600060149054906101000a900460ff1660068111156122f6576122f5612ac1565b5b14612336576040517f08c379a000000000000000000000000000000000000000000000000000000000815260040161232d90612c03565b60405180910390fd5b600354431061237a576040517f08c379a000000000000000000000000000000000000000000000000000000000815260040161237190612c95565b60405180910390fd5b6000600160003373ffffffffffffffffffffffffffffffffffffffff1673ffffffffffffffffffffffffffffffffffffffff16815260200190815260200160002060000154116123ff576040517f08c379a00000000000000000000000000000000000000000000000000000000081526004016123f690613b2b565b60405180910390fd5b600160003373ffffffffffffffffffffffffffffffffffffffff1673ffffffffffffffffffffffffffffffffffffffff16815260200190815260200160002060020160029054906101000a900460ff161561248f576040517f08c379a000000000000000000000000000000000000000000000000000000000815260040161248690613bbd565b60405180910390fd5b6000801b82036124d4576040517f08c379a00000000000000000000000000000000000000000000000000000000081526004016124cb90613c29565b60405180910390fd5b81600160003373ffffffffffffffffffffffffffffffffffffffff1673ffffffffffffffffffffffffffffffffffffffff1681526020019081526020016000206001018190555060018060003373ffffffffffffffffffffffffffffffffffffffff1673ffffffffffffffffffffffffffffffffffffffff16815260200190815260200160002060020160026101000a81548160ff0219169083151502179055503373ffffffffffffffffffffffffffffffffffffffff167f1aad8d3803fb160a4c6f5263ff286489b139b2edc11e262eba94d75f3b181d83836040516125bb9190613c49565b60405180910390a25050565b6125cf61264d565b600073ffffffffffffffffffffffffffffffffffffffff168173ffffffffffffffffffffffffffffffffffffffff16036126415760006040517f1e4fbdf700000000000000000000000000000000000000000000000000000000815260040161263891906128b1565b60405180910390fd5b61264a816126d4565b50565b612655612798565b73ffffffffffffffffffffffffffffffffffffffff16612673611864565b73ffffffffffffffffffffffffffffffffffffffff16146126d257612696612798565b6040517f118cdaa70000000000000000000000000000000000000000000000000000000081526004016126c991906128b1565b60405180910390fd5b565b60008060009054906101000a900473ffffffffffffffffffffffffffffffffffffffff169050816000806101000a81548173ffffffffffffffffffffffffffffffffffffffff021916908373ffffffffffffffffffffffffffffffffffffffff1602179055508173ffffffffffffffffffffffffffffffffffffffff168173ffffffffffffffffffffffffffffffffffffffff167f8be0079c531659141344cd1fd0a4f28419497f9722a3daafe3b4186f6b6457e060405160405180910390a35050565b600033905090565b50805460008255906000526020600020908101906127be91906127c1565b50565b5b808211156127da5760008160009055506001016127c2565b5090565b6000819050919050565b6127f1816127de565b82525050565b600060208201905061280c60008301846127e8565b92915050565b600080fd5b612820816127de565b811461282b57600080fd5b50565b60008135905061283d81612817565b92915050565b60006020828403121561285957612858612812565b5b60006128678482850161282e565b91505092915050565b600073ffffffffffffffffffffffffffffffffffffffff82169050919050565b600061289b82612870565b9050919050565b6128ab81612890565b82525050565b60006020820190506128c660008301846128a2565b92915050565b600061ffff82169050919050565b6128e3816128cc565b81146128ee57600080fd5b50565b600081359050612900816128da565b92915050565b6000819050919050565b61291981612906565b811461292457600080fd5b50565b60008135905061293681612910565b92915050565b6000806040838503121561295357612952612812565b5b6000612961858286016128f1565b925050602061297285828601612927565b9150509250929050565b600060ff82169050919050565b6129928161297c565b82525050565b60006020820190506129ad6000830184612989565b92915050565b60008115159050919050565b6129c8816129b3565b82525050565b60006020820190506129e360008301846129bf565b92915050565b6129f281612890565b81146129fd57600080fd5b50565b600081359050612a0f816129e9565b92915050565b600060208284031215612a2b57612a2a612812565b5b6000612a3984828501612a00565b91505092915050565b612a4b81612906565b82525050565b612a5a816128cc565b82525050565b600060c082019050612a7560008301896127e8565b612a826020830188612a42565b612a8f6040830187612a51565b612a9c60608301866129bf565b612aa960808301856129bf565b612ab660a08301846129bf565b979650505050505050565b7f4e487b7100000000000000000000000000000000000000000000000000000000600052602160045260246000fd5b60078110612b0157612b00612ac1565b5b50565b6000819050612b1282612af0565b919050565b6000612b2282612b04565b9050919050565b612b3281612b17565b82525050565b6000602082019050612b4d6000830184612b29565b92915050565b600060208284031215612b6957612b68612812565b5b6000612b7784828501612927565b91505092915050565b600082825260208201905092915050565b7f46756e6b74696f6e20696e20646965736572205068617365206e69636874206560008201527f726c617562742e00000000000000000000000000000000000000000000000000602082015250565b6000612bed602783612b80565b9150612bf882612b91565b604082019050919050565b60006020820190508181036000830152612c1c81612be0565b9050919050565b7f446561646c696e652d426c6f636b206675657220646965736520416b74696f6e60008201527f206973742065727265696368742e000000000000000000000000000000000000602082015250565b6000612c7f602e83612b80565b9150612c8a82612c23565b604082019050919050565b60006020820190508181036000830152612cae81612c72565b9050919050565b7f4e75722072656769737472696572746520537069656c6572206475657266656e60008201527f206175666465636b656e2e000000000000000000000000000000000000000000602082015250565b6000612d11602b83612b80565b9150612d1c82612cb5565b604082019050919050565b60006020820190508181036000830152612d4081612d04565b9050919050565b7f537069656c6572206d757373207a75657273742065696e656e20436f6d6d697460008201527f2065696e7265696368656e2e0000000000000000000000000000000000000000602082015250565b6000612da3602c83612b80565b9150612dae82612d47565b604082019050919050565b60006020820190508181036000830152612dd281612d96565b9050919050565b7f537069656c65722068617420626572656974732061756667656465636b742e00600082015250565b6000612e0f601f83612b80565b9150612e1a82612dd9565b602082019050919050565b60006020820190508181036000830152612e3e81612e02565b9050919050565b7f5a61686c206d757373207a7769736368656e203020756e642031303030206c6960008201527f6567656e2e000000000000000000000000000000000000000000000000000000602082015250565b6000612ea1602583612b80565b9150612eac82612e45565b604082019050919050565b60006020820190508181036000830152612ed081612e94565b9050919050565b60008160f01b9050919050565b6000612eef82612ed7565b9050919050565b612f07612f02826128cc565b612ee4565b82525050565b6000819050919050565b612f28612f2382612906565b612f0d565b82525050565b60008160601b9050919050565b6000612f4682612f2e565b9050919050565b6000612f5882612f3b565b9050919050565b612f70612f6b82612890565b612f4d565b82525050565b6000612f828286612ef6565b600282019150612f928285612f17565b602082019150612fa28284612f5f565b601482019150819050949350505050565b7f556e6775656c74696765722052657665616c3a205a61686c206f64657220536160008201527f6c742073696e642066616c7363682e0000000000000000000000000000000000602082015250565b600061300f602f83612b80565b915061301a82612fb3565b604082019050919050565b6000602082019050818103600083015261303e81613002565b9050919050565b600060208201905061305a6000830184612a51565b92915050565b7f4e75722064657220476577696e6e6572206b616e6e206461732050726569736760008201527f656c64206162686562656e2e0000000000000000000000000000000000000000602082015250565b60006130bc602c83612b80565b91506130c782613060565b604082019050919050565b600060208201905081810360008301526130eb816130af565b9050919050565b7f476577696e6e65722068617420626572656974732061626765686f62656e2e00600082015250565b6000613128601f83612b80565b9150613133826130f2565b602082019050919050565b600060208201905081810360008301526131578161311b565b9050919050565b7f4e487b7100000000000000000000000000000000000000000000000000000000600052601160045260246000fd5b6000613198826127de565b91506131a3836127de565b92508282026131b1816127de565b915082820484148315176131c8576131c761315e565b5b5092915050565b7f4e487b7100000000000000000000000000000000000000000000000000000000600052601260045260246000fd5b6000613209826127de565b9150613214836127de565b925082613224576132236131cf565b5b828204905092915050565b600061323a826127de565b9150613245836127de565b925082820390508181111561325d5761325c61315e565b5b92915050565b600081905092915050565b50565b600061327e600083613263565b91506132898261326e565b600082019050919050565b600061329f82613271565b9150819050919050565b7f45746865722d5472616e7366657220616e20476577696e6e6572206665686c6760008201527f657363686c6167656e2e00000000000000000000000000000000000000000000602082015250565b6000613305602a83612b80565b9150613310826132a9565b604082019050919050565b60006020820190508181036000830152613334816132f8565b9050919050565b7f4e487b7100000000000000000000000000000000000000000000000000000000600052603260045260246000fd5b6000613375826127de565b9150613380836127de565b92508282019050808211156133985761339761315e565b5b92915050565b60006133a9826127de565b91507fffffffffffffffffffffffffffffffffffffffffffffffffffffffffffffffff82036133db576133da61315e565b5b600182019050919050565b7f4e69656d616e64206861742065696e65205a61686c2061756667656465636b7460008201527f2e00000000000000000000000000000000000000000000000000000000000000602082015250565b6000613442602183612b80565b915061344d826133e6565b604082019050919050565b6000602082019050818103600083015261347181613435565b9050919050565b6000819050919050565b6000819050919050565b60006134a76134a261349d84613478565b613482565b6127de565b9050919050565b6134b78161348c565b82525050565b60006040820190506134d26000830185612b29565b6134df60208301846134ae565b9392505050565b6000819050919050565b6135016134fc826127de565b6134e6565b82525050565b600061351382866134f0565b60208201915061352382856134f0565b60208201915061353382846134f0565b602082019150819050949350505050565b600061354f826127de565b915061355a836127de565b92508261356a576135696131cf565b5b828206905092915050565b600060808201905061358a60008301876127e8565b61359760208301866127e8565b6135a460408301856128a2565b6135b16060830184612a51565b95945050505050565b7f536572766963656765627565687220777572646520626572656974732061626760008201527f65686f62656e2e00000000000000000000000000000000000000000000000000602082015250565b6000613616602783612b80565b9150613621826135ba565b604082019050919050565b6000602082019050818103600083015261364581613609565b9050919050565b7f45746865722d5472616e7366657220616e20537069656c6c656974657220666560008201527f686c67657363686c6167656e2e00000000000000000000000000000000000000602082015250565b60006136a8602d83612b80565b91506136b38261364c565b604082019050919050565b600060208201905081810360008301526136d78161369b565b9050919050565b7f46616c7363686572205765747465696e7361747a20676573656e6465742e0000600082015250565b6000613714601e83612b80565b915061371f826136de565b602082019050919050565b6000602082019050818103600083015261374381613707565b9050919050565b7f537069656c6572206861742062657265697473207465696c67656e6f6d6d656e60008201527f2e00000000000000000000000000000000000000000000000000000000000000602082015250565b60006137a6602183612b80565b91506137b18261374a565b604082019050919050565b600060208201905081810360008301526137d581613799565b9050919050565b7f446561646c696e652d426c6f636b206675657220646965736520416b74696f6e60008201527f20697374206e6f6368206e696368742065727265696368742e00000000000000602082015250565b6000613838603983612b80565b9150613843826137dc565b604082019050919050565b600060208201905081810360008301526138678161382b565b9050919050565b7f4e696368742067656e756567656e6420537069656c657220626569676574726560008201527f74656e2e00000000000000000000000000000000000000000000000000000000602082015250565b60006138ca602483612b80565b91506138d58261386e565b604082019050919050565b600060208201905081810360008301526138f9816138bd565b9050919050565b60006040820190506139156000830185612b29565b61392260208301846127e8565b9392505050565b7f4e757220537069656c6572206b6f656e6e656e2045696e7361747a207a75727560008201527f65636b666f726465726e2e000000000000000000000000000000000000000000602082015250565b6000613985602b83612b80565b915061399082613929565b604082019050919050565b600060208201905081810360008301526139b481613978565b9050919050565b7f45696e7361747a2062657265697473207a75727565636b6765666f726465727460008201527f2e00000000000000000000000000000000000000000000000000000000000000602082015250565b6000613a17602183612b80565b9150613a22826139bb565b604082019050919050565b60006020820190508181036000830152613a4681613a0a565b9050919050565b7f527565636b7a61686c756e67206665686c67657363686c6167656e2e00000000600082015250565b6000613a83601c83612b80565b9150613a8e82613a4d565b602082019050919050565b60006020820190508181036000830152613ab281613a76565b9050919050565b7f4e75722072656769737472696572746520537069656c6572206475657266656e60008201527f20636f6d6d697474656e2e000000000000000000000000000000000000000000602082015250565b6000613b15602b83612b80565b9150613b2082613ab9565b604082019050919050565b60006020820190508181036000830152613b4481613b08565b9050919050565b7f537069656c65722068617420626572656974732065696e656e20436f6d6d697460008201527f2065696e67657265696368742e00000000000000000000000000000000000000602082015250565b6000613ba7602d83612b80565b9150613bb282613b4b565b604082019050919050565b60006020820190508181036000830152613bd681613b9a565b9050919050565b7f436f6d6d69746d656e742064617266206e69636874206c656572207365696e2e600082015250565b6000613c13602083612b80565b9150613c1e82613bdd565b602082019050919050565b60006020820190508181036000830152613c4281613c06565b9050919050565b6000602082019050613c5e6000830184612a42565b9291505056fea26469706673582212207ac78ce0617211cdfcd5e28616ed0f85bd6f6aebe857240fd4f577d085983aea64736f6c634300081c0033",
  "linkReferences": {},
  "deployedLinkReferences": {}
}