{
  "_format": "hh-sol-artifact-1",
  "contractName": "TwoThirdsAverageGame",
  "sourceName": "contracts/TwoThirdsAverageGame.sol",
  "abi": [
    {
      "inputs": [
        {
          "internalType": "uint256",
          "name": "_wagerAmount",
          "type": "uint256"
        },
        {
          "internalType": "uint8",
          "name": "_serviceFeePercentage",
          "type": "uint8"
        },
        {
          "internalType": "address",
          "name": "_initialOwner",
          "type": "address"
        }
      ],
      "stateMutability": "nonpayable",
      "type": "constructor"
    },
    {
      "inputs": [
        {
          "internalType": "address",
          "name": "owner",
          "type": "address"
        }
      ],
      "name": "OwnableInvalidOwner",
      "type": "error"
    },
    {
      "inputs": [
        {
          "internalType": "address",
          "name": "account",
          "type": "address"
        }
      ],
      "name": "OwnableUnauthorizedAccount",
      "type": "error"
    },
    {
      "anonymous": false,
      "inputs": [
        {
          "indexed": true,
          "internalType": "address",
          "name": "empfaenger",
          "type": "address"
        },
        {
          "indexed": false,
          "internalType": "uint256",
          "name": "betrag",
          "type": "uint256"
        }
      ],
      "name": "AuszahlungErfolgt",
      "type": "event"
    },
    {
      "anonymous": false,
      "inputs": [
        {
          "indexed": true,
          "internalType": "address",
          "name": "previousOwner",
          "type": "address"
        },
        {
          "indexed": true,
          "internalType": "address",
          "name": "newOwner",
          "type": "address"
        }
      ],
      "name": "OwnershipTransferred",
      "type": "event"
    },
    {
      "anonymous": false,
      "inputs": [
        {
          "indexed": false,
          "internalType": "enum TwoThirdsAverageGame.SpielPhase",
          "name": "neuePhase",
          "type": "uint8"
        },
        {
          "indexed": false,
          "internalType": "uint256",
          "name": "neueDeadline",
          "type": "uint256"
        }
      ],
      "name": "PhaseGeaendert",
      "type": "event"
    },
    {
      "anonymous": false,
      "inputs": [
        {
          "indexed": false,
          "internalType": "uint256",
          "name": "durchschnitt",
          "type": "uint256"
        },
        {
          "indexed": false,
          "internalType": "uint256",
          "name": "zielwert",
          "type": "uint256"
        },
        {
          "indexed": false,
          "internalType": "address",
          "name": "gewinner",
          "type": "address"
        },
        {
          "indexed": false,
          "internalType": "uint16",
          "name": "gewinnerZahl",
          "type": "uint16"
        }
      ],
      "name": "SpielBerechnet",
      "type": "event"
    },
    {
      "anonymous": false,
      "inputs": [
        {
          "indexed": true,
          "internalType": "address",
          "name": "spieler",
          "type": "address"
        },
        {
          "indexed": false,
          "internalType": "uint256",
          "name": "einsatz",
          "type": "uint256"
        }
      ],
      "name": "SpielerBeigetreten",
      "type": "event"
    },
    {
      "anonymous": false,
      "inputs": [
        {
          "indexed": true,
          "internalType": "address",
          "name": "spieler",
          "type": "address"
        },
        {
          "indexed": false,
          "internalType": "uint16",
          "name": "zahl",
          "type": "uint16"
        }
      ],
      "name": "SpielerHatAufgedeckt",
      "type": "event"
    },
    {
      "anonymous": false,
      "inputs": [
        {
          "indexed": true,
          "internalType": "address",
          "name": "spieler",
          "type": "address"
        },
        {
          "indexed": false,
          "internalType": "bytes32",
          "name": "commitment",
          "type": "bytes32"
        }
      ],
      "name": "SpielerHatCommittet",
      "type": "event"
    },
    {
      "inputs": [],
      "name": "COMMIT_DURATION",
      "outputs": [
        {
          "internalType": "uint256",
          "name": "",
          "type": "uint256"
        }
      ],
      "stateMutability": "view",
      "type": "function"
    },
    {
      "inputs": [],
      "name": "MIN_PLAYERS",
      "outputs": [
        {
          "internalType": "uint8",
          "name": "",
          "type": "uint8"
        }
      ],
      "stateMutability": "view",
      "type": "function"
    },
    {
      "inputs": [],
      "name": "REGISTRATION_DURATION",
      "outputs": [
        {
          "internalType": "uint256",
          "name": "",
          "type": "uint256"
        }
      ],
      "stateMutability": "view",
      "type": "function"
    },
    {
      "inputs": [],
      "name": "REVEAL_DURATION",
      "outputs": [
        {
          "internalType": "uint256",
          "name": "",
          "type": "uint256"
        }
      ],
      "stateMutability": "view",
      "type": "function"
    },
    {
      "inputs": [],
      "name": "SERVICE_FEE_PERCENTAGE",
      "outputs": [
        {
          "internalType": "uint8",
          "name": "",
          "type": "uint8"
        }
      ],
      "stateMutability": "view",
      "type": "function"
    },
    {
      "inputs": [],
      "name": "WAGER_AMOUNT",
      "outputs": [
        {
          "internalType": "uint256",
          "name": "",
          "type": "uint256"
        }
      ],
      "stateMutability": "view",
      "type": "function"
    },
    {
      "inputs": [],
      "name": "aktuellePhase",
      "outputs": [
        {
          "internalType": "enum TwoThirdsAverageGame.SpielPhase",
          "name": "",
          "type": "uint8"
        }
      ],
      "stateMutability": "view",
      "type": "function"
    },
    {
      "inputs": [],
      "name": "averageValue",
      "outputs": [
        {
          "internalType": "uint256",
          "name": "",
          "type": "uint256"
        }
      ],
      "stateMutability": "view",
      "type": "function"
    },
    {
      "inputs": [],
      "name": "beitreten",
      "outputs": [],
      "stateMutability": "payable",
      "type": "function"
    },
    {
      "inputs": [],
      "name": "berechneErgebnisUndErmittleGewinner",
      "outputs": [],
      "stateMutability": "nonpayable",
      "type": "function"
    },
    {
      "inputs": [
        {
          "internalType": "bytes32",
          "name": "_commitment",
          "type": "bytes32"
        }
      ],
      "name": "commit",
      "outputs": [],
      "stateMutability": "nonpayable",
      "type": "function"
    },
    {
      "inputs": [],
      "name": "deadline",
      "outputs": [
        {
          "internalType": "uint256",
          "name": "",
          "type": "uint256"
        }
      ],
      "stateMutability": "view",
      "type": "function"
    },
    {
      "inputs": [],
      "name": "forceStateTransition",
      "outputs": [],
      "stateMutability": "nonpayable",
      "type": "function"
    },
    {
      "inputs": [],
      "name": "getSpielerAnzahl",
      "outputs": [
        {
          "internalType": "uint256",
          "name": "",
          "type": "uint256"
        }
      ],
      "stateMutability": "view",
      "type": "function"
    },
    {
      "inputs": [],
      "name": "owner",
      "outputs": [
        {
          "internalType": "address",
          "name": "",
          "type": "address"
        }
      ],
      "stateMutability": "view",
      "type": "function"
    },
    {
      "inputs": [],
      "name": "pot",
      "outputs": [
        {
          "internalType": "uint256",
          "name": "",
          "type": "uint256"
        }
      ],
      "stateMutability": "view",
      "type": "function"
    },
    {
      "inputs": [
        {
          "internalType": "uint256",
          "name": "",
          "type": "uint256"
        }
      ],
      "name": "potentialWinners",
      "outputs": [
        {
          "internalType": "address",
          "name": "",
          "type": "address"
        }
      ],
      "stateMutability": "view",
      "type": "function"
    },
    {
      "inputs": [],
      "name": "renounceOwnership",
      "outputs": [],
      "stateMutability": "nonpayable",
      "type": "function"
    },
    {
      "inputs": [
        {
          "internalType": "uint16",
          "name": "_number",
          "type": "uint16"
        },
        {
          "internalType": "bytes32",
          "name": "_salt",
          "type": "bytes32"
        }
      ],
      "name": "reveal",
      "outputs": [],
      "stateMutability": "nonpayable",
      "type": "function"
    },
    {
      "inputs": [],
      "name": "serviceFeeWithdrawn",
      "outputs": [
        {
          "internalType": "bool",
          "name": "",
          "type": "bool"
        }
      ],
      "stateMutability": "view",
      "type": "function"
    },
    {
      "inputs": [
        {
          "internalType": "address",
          "name": "",
          "type": "address"
        }
      ],
      "name": "spielerDaten",
      "outputs": [
        {
          "internalType": "uint256",
          "name": "wagerAmount",
          "type": "uint256"
        },
        {
          "internalType": "bytes32",
          "name": "commitment",
          "type": "bytes32"
        },
        {
          "internalType": "uint16",
          "name": "revealedNumber",
          "type": "uint16"
        },
        {
          "internalType": "bool",
          "name": "hasCommitted",
          "type": "bool"
        },
        {
          "internalType": "bool",
          "name": "hasRevealed",
          "type": "bool"
        },
        {
          "internalType": "bool",
          "name": "hasWithdrawn",
          "type": "bool"
        }
      ],
      "stateMutability": "view",
      "type": "function"
    },
    {
      "inputs": [
        {
          "internalType": "uint256",
          "name": "",
          "type": "uint256"
        }
      ],
      "name": "spielerListe",
      "outputs": [
        {
          "internalType": "address",
          "name": "",
          "type": "address"
        }
      ],
      "stateMutability": "view",
      "type": "function"
    },
    {
      "inputs": [],
      "name": "targetValue",
      "outputs": [
        {
          "internalType": "uint256",
          "name": "",
          "type": "uint256"
        }
      ],
      "stateMutability": "view",
      "type": "function"
    },
    {
      "inputs": [
        {
          "internalType": "address",
          "name": "newOwner",
          "type": "address"
        }
      ],
      "name": "transferOwnership",
      "outputs": [],
      "stateMutability": "nonpayable",
      "type": "function"
    },
    {
      "inputs": [],
      "name": "winner",
      "outputs": [
        {
          "internalType": "address",
          "name": "",
          "type": "address"
        }
      ],
      "stateMutability": "view",
      "type": "function"
    },
    {
      "inputs": [],
      "name": "winningDistance",
      "outputs": [
        {
          "internalType": "uint256",
          "name": "",
          "type": "uint256"
        }
      ],
      "stateMutability": "view",
      "type": "function"
    },
    {
      "inputs": [],
      "name": "withdrawPrize",
      "outputs": [],
      "stateMutability": "nonpayable",
      "type": "function"
    },
    {
      "inputs": [],
      "name": "withdrawServiceFee",
      "outputs": [],
      "stateMutability": "nonpayable",
      "type": "function"
    }
  ],
  "bytecode": "0x60c060405234801561001057600080fd5b506040516143d73803806143d78339818101604052810190610032919061036d565b80600073ffffffffffffffffffffffffffffffffffffffff168173ffffffffffffffffffffffffffffffffffffffff16036100a55760006040517f1e4fbdf700000000000000000000000000000000000000000000000000000000815260040161009c91906103cf565b60405180910390fd5b6100b4816101d760201b60201c565b50600083116100f8576040517f08c379a00000000000000000000000000000000000000000000000000000000081526004016100ef9061046d565b60405180910390fd5b60648260ff16111561013f576040517f08c379a0000000000000000000000000000000000000000000000000000000008152600401610136906104ff565b60405180910390fd5b82608081815250508160ff1660a08160ff168152505060008060146101000a81548160ff0219169083600581111561017a5761017961051f565b5b02179055506102584261018d919061057d565b6003819055507f8361a211b9a77318f0c4f0437736316dafd0c35b0437a5174da6913271e7e20360006003546040516101c7929190610608565b60405180910390a1505050610631565b60008060009054906101000a900473ffffffffffffffffffffffffffffffffffffffff169050816000806101000a81548173ffffffffffffffffffffffffffffffffffffffff021916908373ffffffffffffffffffffffffffffffffffffffff1602179055508173ffffffffffffffffffffffffffffffffffffffff168173ffffffffffffffffffffffffffffffffffffffff167f8be0079c531659141344cd1fd0a4f28419497f9722a3daafe3b4186f6b6457e060405160405180910390a35050565b600080fd5b6000819050919050565b6102b3816102a0565b81146102be57600080fd5b50565b6000815190506102d0816102aa565b92915050565b600060ff82169050919050565b6102ec816102d6565b81146102f757600080fd5b50565b600081519050610309816102e3565b92915050565b600073ffffffffffffffffffffffffffffffffffffffff82169050919050565b600061033a8261030f565b9050919050565b61034a8161032f565b811461035557600080fd5b50565b60008151905061036781610341565b92915050565b6000806000606084860312156103865761038561029b565b5b6000610394868287016102c1565b93505060206103a5868287016102fa565b92505060406103b686828701610358565b9150509250925092565b6103c98161032f565b82525050565b60006020820190506103e460008301846103c0565b92915050565b600082825260208201905092915050565b7f5765747465696e7361747a206d7573732067726f657373657220616c7320302060008201527f7365696e2e000000000000000000000000000000000000000000000000000000602082015250565b60006104576025836103ea565b9150610462826103fb565b604082019050919050565b600060208201905081810360008301526104868161044a565b9050919050565b7f53657276696365676562756568722064617266206d6178696d616c203130302560008201527f207365696e2e0000000000000000000000000000000000000000000000000000602082015250565b60006104e96026836103ea565b91506104f48261048d565b604082019050919050565b60006020820190508181036000830152610518816104dc565b9050919050565b7f4e487b7100000000000000000000000000000000000000000000000000000000600052602160045260246000fd5b7f4e487b7100000000000000000000000000000000000000000000000000000000600052601160045260246000fd5b6000610588826102a0565b9150610593836102a0565b92508282019050808211156105ab576105aa61054e565b5b92915050565b600681106105c2576105c161051f565b5b50565b60008190506105d3826105b1565b919050565b60006105e3826105c5565b9050919050565b6105f3816105d8565b82525050565b610602816102a0565b82525050565b600060408201905061061d60008301856105ea565b61062a60208301846105f9565b9392505050565b60805160a051613d6c61066b60003960008181610ad301528181610cec01526115a40152600081816117f401526123410152613d6c6000f3fe6080604052600436106101b75760003560e01c806389518834116100ec578063bb1b41721161008a578063e723c51d11610064578063e723c51d14610578578063e867c296146105a3578063f14fcbc8146105ce578063f2fde38b146105f7576101b7565b8063bb1b41721461050b578063cb910bda14610522578063dfbf53ae1461054d576101b7565b8063ad20586a116100c6578063ad20586a14610448578063b39773a61461048a578063b7e7593d146104b5578063b971e2fd146104e0576101b7565b806389518834146103e85780638da5cb5b14610413578063a10efef11461043e576101b7565b80634c1342df1161015957806364ebd1d81161013357806364ebd1d814610378578063715018a61461038f578063849bb2db146103a657806385f07bbe146103bd576101b7565b80634c1342df146102e55780635535f53414610310578063572dbdcb1461034d576101b7565b806341b0c9ba1161019557806341b0c9ba1461024d57806344cd13091461027857806348d37a58146102a35780634ba2363a146102ba576101b7565b80631af08b05146101bc5780631f22f2dc146101f957806329dcb0cf14610222575b600080fd5b3480156101c857600080fd5b506101e360048036038101906101de91906128fc565b610620565b6040516101f0919061296a565b60405180910390f35b34801561020557600080fd5b50610220600480360381019061021b91906129f5565b61065f565b005b34801561022e57600080fd5b50610237610ac5565b6040516102449190612a44565b60405180910390f35b34801561025957600080fd5b50610262610acb565b60405161026f9190612a44565b60405180910390f35b34801561028457600080fd5b5061028d610ad1565b60405161029a9190612a7b565b60405180910390f35b3480156102af57600080fd5b506102b8610af5565b005b3480156102c657600080fd5b506102cf610e39565b6040516102dc9190612a44565b60405180910390f35b3480156102f157600080fd5b506102fa610e3f565b6040516103079190612a44565b60405180910390f35b34801561031c57600080fd5b50610337600480360381019061033291906128fc565b610e45565b604051610344919061296a565b60405180910390f35b34801561035957600080fd5b50610362610e84565b60405161036f9190612a44565b60405180910390f35b34801561038457600080fd5b5061038d610e8a565b005b34801561039b57600080fd5b506103a46114a0565b005b3480156103b257600080fd5b506103bb6114b4565b005b3480156103c957600080fd5b506103d26116f6565b6040516103df9190612a7b565b60405180910390f35b3480156103f457600080fd5b506103fd6116fb565b60405161040a9190612ab1565b60405180910390f35b34801561041f57600080fd5b5061042861170e565b604051610435919061296a565b60405180910390f35b610446611737565b005b34801561045457600080fd5b5061046f600480360381019061046a9190612af8565b611abd565b60405161048196959493929190612b43565b60405180910390f35b34801561049657600080fd5b5061049f611b2e565b6040516104ac9190612a44565b60405180910390f35b3480156104c157600080fd5b506104ca611b34565b6040516104d79190612a44565b60405180910390f35b3480156104ec57600080fd5b506104f5611b41565b6040516105029190612a44565b60405180910390f35b34801561051757600080fd5b50610520611b47565b005b34801561052e57600080fd5b5061053761233f565b6040516105449190612a44565b60405180910390f35b34801561055957600080fd5b50610562612363565b60405161056f919061296a565b60405180910390f35b34801561058457600080fd5b5061058d612389565b60405161059a9190612c1b565b60405180910390f35b3480156105af57600080fd5b506105b861239c565b6040516105c59190612a44565b60405180910390f35b3480156105da57600080fd5b506105f560048036038101906105f09190612c36565b6123a2565b005b34801561060357600080fd5b5061061e60048036038101906106199190612af8565b6126aa565b005b6006818154811061063057600080fd5b906000526020600020016000915054906101000a900473ffffffffffffffffffffffffffffffffffffffff1681565b600280600581111561067457610673612ba4565b5b600060149054906101000a900460ff16600581111561069657610695612ba4565b5b146106d6576040517f08c379a00000000000000000000000000000000000000000000000000000000081526004016106cd90612ce6565b60405180910390fd5b600354421061071a576040517f08c379a000000000000000000000000000000000000000000000000000000000815260040161071190612d78565b60405180910390fd5b6000600160003373ffffffffffffffffffffffffffffffffffffffff1673ffffffffffffffffffffffffffffffffffffffff168152602001908152602001600020600001541161079f576040517f08c379a000000000000000000000000000000000000000000000000000000000815260040161079690612e0a565b60405180910390fd5b600160003373ffffffffffffffffffffffffffffffffffffffff1673ffffffffffffffffffffffffffffffffffffffff16815260200190815260200160002060020160029054906101000a900460ff1661082e576040517f08c379a000000000000000000000000000000000000000000000000000000000815260040161082590612e9c565b60405180910390fd5b600160003373ffffffffffffffffffffffffffffffffffffffff1673ffffffffffffffffffffffffffffffffffffffff16815260200190815260200160002060020160039054906101000a900460ff16156108be576040517f08c379a00000000000000000000000000000000000000000000000000000000081526004016108b590612f08565b60405180910390fd5b6103e88361ffff161115610907576040517f08c379a00000000000000000000000000000000000000000000000000000000081526004016108fe90612f9a565b60405180910390fd5b600083833360405160200161091e93929190613059565b604051602081830303815290604052805190602001209050600160003373ffffffffffffffffffffffffffffffffffffffff1673ffffffffffffffffffffffffffffffffffffffff1681526020019081526020016000206001015481146109ba576040517f08c379a00000000000000000000000000000000000000000000000000000000081526004016109b190613108565b60405180910390fd5b83600160003373ffffffffffffffffffffffffffffffffffffffff1673ffffffffffffffffffffffffffffffffffffffff16815260200190815260200160002060020160006101000a81548161ffff021916908361ffff16021790555060018060003373ffffffffffffffffffffffffffffffffffffffff1673ffffffffffffffffffffffffffffffffffffffff16815260200190815260200160002060020160036101000a81548160ff0219169083151502179055503373ffffffffffffffffffffffffffffffffffffffff167f02611ce3540950ad36b01d44bdfefc5091a4f5c486cbe0ab219080fde911492785604051610ab79190613128565b60405180910390a250505050565b60035481565b60085481565b7f000000000000000000000000000000000000000000000000000000000000000081565b6004806005811115610b0a57610b09612ba4565b5b600060149054906101000a900460ff166005811115610b2c57610b2b612ba4565b5b14610b6c576040517f08c379a0000000000000000000000000000000000000000000000000000000008152600401610b6390612ce6565b60405180910390fd5b600560019054906101000a900473ffffffffffffffffffffffffffffffffffffffff1673ffffffffffffffffffffffffffffffffffffffff163373ffffffffffffffffffffffffffffffffffffffff1614610bfc576040517f08c379a0000000000000000000000000000000000000000000000000000000008152600401610bf3906131b5565b60405180910390fd5b600160003373ffffffffffffffffffffffffffffffffffffffff1673ffffffffffffffffffffffffffffffffffffffff16815260200190815260200160002060020160049054906101000a900460ff1615610c8c576040517f08c379a0000000000000000000000000000000000000000000000000000000008152600401610c8390613221565b60405180910390fd5b60018060003373ffffffffffffffffffffffffffffffffffffffff1673ffffffffffffffffffffffffffffffffffffffff16815260200190815260200160002060020160046101000a81548160ff021916908315150217905550600060647f000000000000000000000000000000000000000000000000000000000000000060ff16600454610d1b9190613270565b610d2591906132e1565b9050600081600454610d379190613312565b905060003373ffffffffffffffffffffffffffffffffffffffff1682604051610d5f90613377565b60006040518083038185875af1925050503d8060008114610d9c576040519150601f19603f3d011682016040523d82523d6000602084013e610da1565b606091505b5050905080610de5576040517f08c379a0000000000000000000000000000000000000000000000000000000008152600401610ddc906133fe565b60405180910390fd5b3373ffffffffffffffffffffffffffffffffffffffff167f8df6ea29e9999fca9954eb2029dd32bc88491d414e6e291639995dc8157e803283604051610e2b9190612a44565b60405180910390a250505050565b60045481565b61025881565b60028181548110610e5557600080fd5b906000526020600020016000915054906101000a900473ffffffffffffffffffffffffffffffffffffffff1681565b60095481565b60006005811115610e9e57610e9d612ba4565b5b600060149054906101000a900460ff166005811115610ec057610ebf612ba4565b5b036110215760035442101580610f085750610ed961170e565b73ffffffffffffffffffffffffffffffffffffffff163373ffffffffffffffffffffffffffffffffffffffff16145b610f47576040517f08c379a0000000000000000000000000000000000000000000000000000000008152600401610f3e9061346a565b60405180910390fd5b600360ff166002805490501015610f93576040517f08c379a0000000000000000000000000000000000000000000000000000000008152600401610f8a906134fc565b60405180910390fd5b6001600060146101000a81548160ff02191690836005811115610fb957610fb8612ba4565b5b021790555061012c42610fcc919061351c565b6003819055507f8361a211b9a77318f0c4f0437736316dafd0c35b0437a5174da6913271e7e203600060149054906101000a900460ff16600354604051611014929190613550565b60405180910390a161149e565b6001600581111561103557611034612ba4565b5b600060149054906101000a900460ff16600581111561105757611056612ba4565b5b0361116c576003544210158061109f575061107061170e565b73ffffffffffffffffffffffffffffffffffffffff163373ffffffffffffffffffffffffffffffffffffffff16145b6110de576040517f08c379a00000000000000000000000000000000000000000000000000000000081526004016110d59061346a565b60405180910390fd5b6002600060146101000a81548160ff0219169083600581111561110457611103612ba4565b5b021790555061012c42611117919061351c565b6003819055507f8361a211b9a77318f0c4f0437736316dafd0c35b0437a5174da6913271e7e203600060149054906101000a900460ff1660035460405161115f929190613550565b60405180910390a161149e565b600260058111156111805761117f612ba4565b5b600060149054906101000a900460ff1660058111156111a2576111a1612ba4565b5b036112ab57600354421015806111ea57506111bb61170e565b73ffffffffffffffffffffffffffffffffffffffff163373ffffffffffffffffffffffffffffffffffffffff16145b611229576040517f08c379a00000000000000000000000000000000000000000000000000000000081526004016112209061346a565b60405180910390fd5b6003600060146101000a81548160ff0219169083600581111561124f5761124e612ba4565b5b021790555060006003819055507f8361a211b9a77318f0c4f0437736316dafd0c35b0437a5174da6913271e7e203600060149054906101000a900460ff1660035460405161129e929190613550565b60405180910390a161149e565b600460058111156112bf576112be612ba4565b5b600060149054906101000a900460ff1660058111156112e1576112e0612ba4565b5b0361149d576112ee61170e565b73ffffffffffffffffffffffffffffffffffffffff163373ffffffffffffffffffffffffffffffffffffffff161461135b576040517f08c379a0000000000000000000000000000000000000000000000000000000008152600401611352906135eb565b60405180910390fd5b600560009054906101000a900460ff1680156113e5575060016000600560019054906101000a900473ffffffffffffffffffffffffffffffffffffffff1673ffffffffffffffffffffffffffffffffffffffff1673ffffffffffffffffffffffffffffffffffffffff16815260200190815260200160002060020160049054906101000a900460ff165b611424576040517f08c379a000000000000000000000000000000000000000000000000000000000815260040161141b9061367d565b60405180910390fd5b6005600060146101000a81548160ff0219169083600581111561144a57611449612ba4565b5b02179055507f8361a211b9a77318f0c4f0437736316dafd0c35b0437a5174da6913271e7e203600060149054906101000a900460ff1660006040516114909291906136e2565b60405180910390a161149e565b5b565b6114a8612730565b6114b260006127b7565b565b6114bc612730565b60048060058111156114d1576114d0612ba4565b5b600060149054906101000a900460ff1660058111156114f3576114f2612ba4565b5b14611533576040517f08c379a000000000000000000000000000000000000000000000000000000000815260040161152a90612ce6565b60405180910390fd5b600560009054906101000a900460ff1615611583576040517f08c379a000000000000000000000000000000000000000000000000000000000815260040161157a9061377d565b60405180910390fd5b6001600560006101000a81548160ff021916908315150217905550600060647f000000000000000000000000000000000000000000000000000000000000000060ff166004546115d39190613270565b6115dd91906132e1565b905060008111156116f25760006115f261170e565b73ffffffffffffffffffffffffffffffffffffffff168260405161161590613377565b60006040518083038185875af1925050503d8060008114611652576040519150601f19603f3d011682016040523d82523d6000602084013e611657565b606091505b505090508061169b576040517f08c379a00000000000000000000000000000000000000000000000000000000081526004016116929061380f565b60405180910390fd5b6116a361170e565b73ffffffffffffffffffffffffffffffffffffffff167f8df6ea29e9999fca9954eb2029dd32bc88491d414e6e291639995dc8157e8032836040516116e89190612a44565b60405180910390a2505b5050565b600381565b600560009054906101000a900460ff1681565b60008060009054906101000a900473ffffffffffffffffffffffffffffffffffffffff16905090565b600080600581111561174c5761174b612ba4565b5b600060149054906101000a900460ff16600581111561176e5761176d612ba4565b5b146117ae576040517f08c379a00000000000000000000000000000000000000000000000000000000081526004016117a590612ce6565b60405180910390fd5b60035442106117f2576040517f08c379a00000000000000000000000000000000000000000000000000000000081526004016117e990612d78565b60405180910390fd5b7f00000000000000000000000000000000000000000000000000000000000000003414611854576040517f08c379a000000000000000000000000000000000000000000000000000000000815260040161184b9061387b565b60405180910390fd5b6000600160003373ffffffffffffffffffffffffffffffffffffffff1673ffffffffffffffffffffffffffffffffffffffff16815260200190815260200160002060000154146118d9576040517f08c379a00000000000000000000000000000000000000000000000000000000081526004016118d09061390d565b60405180910390fd5b6002339080600181540180825580915050600190039060005260206000200160009091909190916101000a81548173ffffffffffffffffffffffffffffffffffffffff021916908373ffffffffffffffffffffffffffffffffffffffff1602179055506040518060c001604052803481526020016000801b8152602001600061ffff16815260200160001515815260200160001515815260200160001515815250600160003373ffffffffffffffffffffffffffffffffffffffff1673ffffffffffffffffffffffffffffffffffffffff168152602001908152602001600020600082015181600001556020820151816001015560408201518160020160006101000a81548161ffff021916908361ffff16021790555060608201518160020160026101000a81548160ff02191690831515021790555060808201518160020160036101000a81548160ff02191690831515021790555060a08201518160020160046101000a81548160ff0219169083151502179055509050503460046000828254611a65919061351c565b925050819055503373ffffffffffffffffffffffffffffffffffffffff167f43233cd6fdb7813564a8927b95d173ab1d6305565e0a0b2bb6c236b53907538634604051611ab29190612a44565b60405180910390a250565b60016020528060005260406000206000915090508060000154908060010154908060020160009054906101000a900461ffff16908060020160029054906101000a900460ff16908060020160039054906101000a900460ff16908060020160049054906101000a900460ff16905086565b61012c81565b6000600280549050905090565b61012c81565b611b4f612730565b6003806005811115611b6457611b63612ba4565b5b600060149054906101000a900460ff166005811115611b8657611b85612ba4565b5b14611bc6576040517f08c379a0000000000000000000000000000000000000000000000000000000008152600401611bbd90612ce6565b60405180910390fd5b60008060005b600280549050811015611d28576001600060028381548110611bf157611bf061392d565b5b9060005260206000200160009054906101000a900473ffffffffffffffffffffffffffffffffffffffff1673ffffffffffffffffffffffffffffffffffffffff1673ffffffffffffffffffffffffffffffffffffffff16815260200190815260200160002060020160039054906101000a900460ff1615611d1b576001600060028381548110611c8457611c8361392d565b5b9060005260206000200160009054906101000a900473ffffffffffffffffffffffffffffffffffffffff1673ffffffffffffffffffffffffffffffffffffffff1673ffffffffffffffffffffffffffffffffffffffff16815260200190815260200160002060020160009054906101000a900461ffff1661ffff1683611d0a919061351c565b92508180611d179061395c565b9250505b8080600101915050611bcc565b5060008111611d6c576040517f08c379a0000000000000000000000000000000000000000000000000000000008152600401611d6390613a16565b60405180910390fd5b8082611d7891906132e1565b60078190555060036002600754611d8f9190613270565b611d9991906132e1565b6008819055507fffffffffffffffffffffffffffffffffffffffffffffffffffffffffffffffff60098190555060005b60028054905081101561209e57600060028281548110611dec57611deb61392d565b5b9060005260206000200160009054906101000a900473ffffffffffffffffffffffffffffffffffffffff169050600160008273ffffffffffffffffffffffffffffffffffffffff1673ffffffffffffffffffffffffffffffffffffffff16815260200190815260200160002060020160039054906101000a900460ff1615612090576000600854600160008473ffffffffffffffffffffffffffffffffffffffff1673ffffffffffffffffffffffffffffffffffffffff16815260200190815260200160002060020160009054906101000a900461ffff1661ffff1611611f3457600160008373ffffffffffffffffffffffffffffffffffffffff1673ffffffffffffffffffffffffffffffffffffffff16815260200190815260200160002060020160009054906101000a900461ffff1661ffff16600854611f2f9190613312565b611f97565b600854600160008473ffffffffffffffffffffffffffffffffffffffff1673ffffffffffffffffffffffffffffffffffffffff16815260200190815260200160002060020160009054906101000a900461ffff1661ffff16611f969190613312565b5b9050600954811015612020578060098190555060066000611fb89190612883565b6006829080600181540180825580915050600190039060005260206000200160009091909190916101000a81548173ffffffffffffffffffffffffffffffffffffffff021916908373ffffffffffffffffffffffffffffffffffffffff16021790555061208e565b600954810361208d576006829080600181540180825580915050600190039060005260206000200160009091909190916101000a81548173ffffffffffffffffffffffffffffffffffffffff021916908373ffffffffffffffffffffffffffffffffffffffff1602179055505b5b505b508080600101915050611dc9565b506000600680549050116120e7576040517f08c379a00000000000000000000000000000000000000000000000000000000081526004016120de90613aa8565b60405180910390fd5b6001600680549050036121795760066000815481106121095761210861392d565b5b9060005260206000200160009054906101000a900473ffffffffffffffffffffffffffffffffffffffff16600560016101000a81548173ffffffffffffffffffffffffffffffffffffffff021916908373ffffffffffffffffffffffffffffffffffffffff16021790555061223a565b60006006805490504244604051602001612194929190613ae9565b6040516020818303038152906040528051906020012060001c6121b79190613b15565b9050600681815481106121cd576121cc61392d565b5b9060005260206000200160009054906101000a900473ffffffffffffffffffffffffffffffffffffffff16600560016101000a81548173ffffffffffffffffffffffffffffffffffffffff021916908373ffffffffffffffffffffffffffffffffffffffff160217905550505b6004600060146101000a81548160ff021916908360058111156122605761225f612ba4565b5b02179055507fd52a340578501e11001149af511ab5b02b95aa5387842a6f2b4aa9db6d58f099600754600854600560019054906101000a900473ffffffffffffffffffffffffffffffffffffffff1660016000600560019054906101000a900473ffffffffffffffffffffffffffffffffffffffff1673ffffffffffffffffffffffffffffffffffffffff1673ffffffffffffffffffffffffffffffffffffffff16815260200190815260200160002060020160009054906101000a900461ffff166040516123329493929190613b46565b60405180910390a1505050565b7f000000000000000000000000000000000000000000000000000000000000000081565b600560019054906101000a900473ffffffffffffffffffffffffffffffffffffffff1681565b600060149054906101000a900460ff1681565b60075481565b60018060058111156123b7576123b6612ba4565b5b600060149054906101000a900460ff1660058111156123d9576123d8612ba4565b5b14612419576040517f08c379a000000000000000000000000000000000000000000000000000000000815260040161241090612ce6565b60405180910390fd5b600354421061245d576040517f08c379a000000000000000000000000000000000000000000000000000000000815260040161245490612d78565b60405180910390fd5b6000600160003373ffffffffffffffffffffffffffffffffffffffff1673ffffffffffffffffffffffffffffffffffffffff16815260200190815260200160002060000154116124e2576040517f08c379a00000000000000000000000000000000000000000000000000000000081526004016124d990613bfd565b60405180910390fd5b600160003373ffffffffffffffffffffffffffffffffffffffff1673ffffffffffffffffffffffffffffffffffffffff16815260200190815260200160002060020160029054906101000a900460ff1615612572576040517f08c379a000000000000000000000000000000000000000000000000000000000815260040161256990613c8f565b60405180910390fd5b6000801b82036125b7576040517f08c379a00000000000000000000000000000000000000000000000000000000081526004016125ae90613cfb565b60405180910390fd5b81600160003373ffffffffffffffffffffffffffffffffffffffff1673ffffffffffffffffffffffffffffffffffffffff1681526020019081526020016000206001018190555060018060003373ffffffffffffffffffffffffffffffffffffffff1673ffffffffffffffffffffffffffffffffffffffff16815260200190815260200160002060020160026101000a81548160ff0219169083151502179055503373ffffffffffffffffffffffffffffffffffffffff167f1aad8d3803fb160a4c6f5263ff286489b139b2edc11e262eba94d75f3b181d838360405161269e9190613d1b565b60405180910390a25050565b6126b2612730565b600073ffffffffffffffffffffffffffffffffffffffff168173ffffffffffffffffffffffffffffffffffffffff16036127245760006040517f1e4fbdf700000000000000000000000000000000000000000000000000000000815260040161271b919061296a565b60405180910390fd5b61272d816127b7565b50565b61273861287b565b73ffffffffffffffffffffffffffffffffffffffff1661275661170e565b73ffffffffffffffffffffffffffffffffffffffff16146127b55761277961287b565b6040517f118cdaa70000000000000000000000000000000000000000000000000000000081526004016127ac919061296a565b60405180910390fd5b565b60008060009054906101000a900473ffffffffffffffffffffffffffffffffffffffff169050816000806101000a81548173ffffffffffffffffffffffffffffffffffffffff021916908373ffffffffffffffffffffffffffffffffffffffff1602179055508173ffffffffffffffffffffffffffffffffffffffff168173ffffffffffffffffffffffffffffffffffffffff167f8be0079c531659141344cd1fd0a4f28419497f9722a3daafe3b4186f6b6457e060405160405180910390a35050565b600033905090565b50805460008255906000526020600020908101906128a191906128a4565b50565b5b808211156128bd5760008160009055506001016128a5565b5090565b600080fd5b6000819050919050565b6128d9816128c6565b81146128e457600080fd5b50565b6000813590506128f6816128d0565b92915050565b600060208284031215612912576129116128c1565b5b6000612920848285016128e7565b91505092915050565b600073ffffffffffffffffffffffffffffffffffffffff82169050919050565b600061295482612929565b9050919050565b61296481612949565b82525050565b600060208201905061297f600083018461295b565b92915050565b600061ffff82169050919050565b61299c81612985565b81146129a757600080fd5b50565b6000813590506129b981612993565b92915050565b6000819050919050565b6129d2816129bf565b81146129dd57600080fd5b50565b6000813590506129ef816129c9565b92915050565b60008060408385031215612a0c57612a0b6128c1565b5b6000612a1a858286016129aa565b9250506020612a2b858286016129e0565b9150509250929050565b612a3e816128c6565b82525050565b6000602082019050612a596000830184612a35565b92915050565b600060ff82169050919050565b612a7581612a5f565b82525050565b6000602082019050612a906000830184612a6c565b92915050565b60008115159050919050565b612aab81612a96565b82525050565b6000602082019050612ac66000830184612aa2565b92915050565b612ad581612949565b8114612ae057600080fd5b50565b600081359050612af281612acc565b92915050565b600060208284031215612b0e57612b0d6128c1565b5b6000612b1c84828501612ae3565b91505092915050565b612b2e816129bf565b82525050565b612b3d81612985565b82525050565b600060c082019050612b586000830189612a35565b612b656020830188612b25565b612b726040830187612b34565b612b7f6060830186612aa2565b612b8c6080830185612aa2565b612b9960a0830184612aa2565b979650505050505050565b7f4e487b7100000000000000000000000000000000000000000000000000000000600052602160045260246000fd5b60068110612be457612be3612ba4565b5b50565b6000819050612bf582612bd3565b919050565b6000612c0582612be7565b9050919050565b612c1581612bfa565b82525050565b6000602082019050612c306000830184612c0c565b92915050565b600060208284031215612c4c57612c4b6128c1565b5b6000612c5a848285016129e0565b91505092915050565b600082825260208201905092915050565b7f46756e6b74696f6e20696e20646965736572205068617365206e69636874206560008201527f726c617562742e00000000000000000000000000000000000000000000000000602082015250565b6000612cd0602783612c63565b9150612cdb82612c74565b604082019050919050565b60006020820190508181036000830152612cff81612cc3565b9050919050565b7f446561646c696e65206675657220646965736520416b74696f6e20697374206160008201527f6267656c617566656e2e00000000000000000000000000000000000000000000602082015250565b6000612d62602a83612c63565b9150612d6d82612d06565b604082019050919050565b60006020820190508181036000830152612d9181612d55565b9050919050565b7f4e75722072656769737472696572746520537069656c6572206475657266656e60008201527f206175666465636b656e2e000000000000000000000000000000000000000000602082015250565b6000612df4602b83612c63565b9150612dff82612d98565b604082019050919050565b60006020820190508181036000830152612e2381612de7565b9050919050565b7f537069656c6572206d757373207a75657273742065696e656e20436f6d6d697460008201527f2065696e7265696368656e2e0000000000000000000000000000000000000000602082015250565b6000612e86602c83612c63565b9150612e9182612e2a565b604082019050919050565b60006020820190508181036000830152612eb581612e79565b9050919050565b7f537069656c65722068617420626572656974732061756667656465636b742e00600082015250565b6000612ef2601f83612c63565b9150612efd82612ebc565b602082019050919050565b60006020820190508181036000830152612f2181612ee5565b9050919050565b7f5a61686c206d757373207a7769736368656e203020756e642031303030206c6960008201527f6567656e2e000000000000000000000000000000000000000000000000000000602082015250565b6000612f84602583612c63565b9150612f8f82612f28565b604082019050919050565b60006020820190508181036000830152612fb381612f77565b9050919050565b60008160f01b9050919050565b6000612fd282612fba565b9050919050565b612fea612fe582612985565b612fc7565b82525050565b6000819050919050565b61300b613006826129bf565b612ff0565b82525050565b60008160601b9050919050565b600061302982613011565b9050919050565b600061303b8261301e565b9050919050565b61305361304e82612949565b613030565b82525050565b60006130658286612fd9565b6002820191506130758285612ffa565b6020820191506130858284613042565b601482019150819050949350505050565b7f556e6775656c74696765722052657665616c2e205a61686c206f64657220536160008201527f6c742073696e642066616c7363682e0000000000000000000000000000000000602082015250565b60006130f2602f83612c63565b91506130fd82613096565b604082019050919050565b60006020820190508181036000830152613121816130e5565b9050919050565b600060208201905061313d6000830184612b34565b92915050565b7f4e75722064657220476577696e6e6572206b616e6e206461732050726569736760008201527f656c64206162686562656e2e0000000000000000000000000000000000000000602082015250565b600061319f602c83612c63565b91506131aa82613143565b604082019050919050565b600060208201905081810360008301526131ce81613192565b9050919050565b7f476577696e6e65722068617420626572656974732061626765686f62656e2e00600082015250565b600061320b601f83612c63565b9150613216826131d5565b602082019050919050565b6000602082019050818103600083015261323a816131fe565b9050919050565b7f4e487b7100000000000000000000000000000000000000000000000000000000600052601160045260246000fd5b600061327b826128c6565b9150613286836128c6565b9250828202613294816128c6565b915082820484148315176132ab576132aa613241565b5b5092915050565b7f4e487b7100000000000000000000000000000000000000000000000000000000600052601260045260246000fd5b60006132ec826128c6565b91506132f7836128c6565b925082613307576133066132b2565b5b828204905092915050565b600061331d826128c6565b9150613328836128c6565b92508282039050818111156133405761333f613241565b5b92915050565b600081905092915050565b50565b6000613361600083613346565b915061336c82613351565b600082019050919050565b600061338282613354565b9150819050919050565b7f45746865722d5472616e7366657220616e20476577696e6e6572206665686c6760008201527f657363686c6167656e2e00000000000000000000000000000000000000000000602082015250565b60006133e8602a83612c63565b91506133f38261338c565b604082019050919050565b60006020820190508181036000830152613417816133db565b9050919050565b7f556562657267616e67206e6f6368206e696368742065726c617562742e000000600082015250565b6000613454601d83612c63565b915061345f8261341e565b602082019050919050565b6000602082019050818103600083015261348381613447565b9050919050565b7f4e696368742067656e756567656e6420537069656c657220626569676574726560008201527f74656e2e00000000000000000000000000000000000000000000000000000000602082015250565b60006134e6602483612c63565b91506134f18261348a565b604082019050919050565b60006020820190508181036000830152613515816134d9565b9050919050565b6000613527826128c6565b9150613532836128c6565b925082820190508082111561354a57613549613241565b5b92915050565b60006040820190506135656000830185612c0c565b6135726020830184612a35565b9392505050565b7f4e757220537069656c6c6569746572206b616e6e20537069656c206265656e6460008201527f656e2e0000000000000000000000000000000000000000000000000000000000602082015250565b60006135d5602383612c63565b91506135e082613579565b604082019050919050565b60006020820190508181036000830152613604816135c8565b9050919050565b7f4175737a61686c756e67656e206e6f6368206e6963687420616267657363686c60008201527f6f7373656e2e0000000000000000000000000000000000000000000000000000602082015250565b6000613667602683612c63565b91506136728261360b565b604082019050919050565b600060208201905081810360008301526136968161365a565b9050919050565b6000819050919050565b6000819050919050565b60006136cc6136c76136c28461369d565b6136a7565b6128c6565b9050919050565b6136dc816136b1565b82525050565b60006040820190506136f76000830185612c0c565b61370460208301846136d3565b9392505050565b7f536572766963656765627565687220777572646520626572656974732061626760008201527f65686f62656e2e00000000000000000000000000000000000000000000000000602082015250565b6000613767602783612c63565b91506137728261370b565b604082019050919050565b600060208201905081810360008301526137968161375a565b9050919050565b7f45746865722d5472616e7366657220616e20537069656c6c656974657220666560008201527f686c67657363686c6167656e2e00000000000000000000000000000000000000602082015250565b60006137f9602d83612c63565b91506138048261379d565b604082019050919050565b60006020820190508181036000830152613828816137ec565b9050919050565b7f46616c7363686572205765747465696e7361747a20676573656e6465742e0000600082015250565b6000613865601e83612c63565b91506138708261382f565b602082019050919050565b6000602082019050818103600083015261389481613858565b9050919050565b7f537069656c6572206861742062657265697473207465696c67656e6f6d6d656e60008201527f2e00000000000000000000000000000000000000000000000000000000000000602082015250565b60006138f7602183612c63565b91506139028261389b565b604082019050919050565b60006020820190508181036000830152613926816138ea565b9050919050565b7f4e487b7100000000000000000000000000000000000000000000000000000000600052603260045260246000fd5b6000613967826128c6565b91507fffffffffffffffffffffffffffffffffffffffffffffffffffffffffffffffff820361399957613998613241565b5b600182019050919050565b7f4e69656d616e64206861742061756667656465636b742c20537069656c206b6160008201527f6e6e206e696368742061757367657765727465742077657264656e2e00000000602082015250565b6000613a00603c83612c63565b9150613a0b826139a4565b604082019050919050565b60006020820190508181036000830152613a2f816139f3565b9050919050565b7f496e7465726e6572204665686c65723a204b65696e20706f74656e7a69656c6c60008201527f657220476577696e6e657220676566756e64656e2e0000000000000000000000602082015250565b6000613a92603583612c63565b9150613a9d82613a36565b604082019050919050565b60006020820190508181036000830152613ac181613a85565b9050919050565b6000819050919050565b613ae3613ade826128c6565b613ac8565b82525050565b6000613af58285613ad2565b602082019150613b058284613ad2565b6020820191508190509392505050565b6000613b20826128c6565b9150613b2b836128c6565b925082613b3b57613b3a6132b2565b5b828206905092915050565b6000608082019050613b5b6000830187612a35565b613b686020830186612a35565b613b75604083018561295b565b613b826060830184612b34565b95945050505050565b7f4e75722072656769737472696572746520537069656c6572206475657266656e60008201527f20636f6d6d697474656e2e000000000000000000000000000000000000000000602082015250565b6000613be7602b83612c63565b9150613bf282613b8b565b604082019050919050565b60006020820190508181036000830152613c1681613bda565b9050919050565b7f537069656c65722068617420626572656974732065696e656e20436f6d6d697460008201527f2065696e67657265696368742e00000000000000000000000000000000000000602082015250565b6000613c79602d83612c63565b9150613c8482613c1d565b604082019050919050565b60006020820190508181036000830152613ca881613c6c565b9050919050565b7f436f6d6d69746d656e742064617266206e69636874206c656572207365696e2e600082015250565b6000613ce5602083612c63565b9150613cf082613caf565b602082019050919050565b60006020820190508181036000830152613d1481613cd8565b9050919050565b6000602082019050613d306000830184612b25565b9291505056fea26469706673582212202426a2383958a078f227151d449b97d9ec572f653375678f5f23c2f57bc863f364736f6c634300081c0033",
  "linkReferences": {},
  "deployedLinkReferences": {}
}